{
  "_format": "hh-sol-artifact-1",
  "contractName": "Election",
  "sourceName": "contracts/election.sol",
  "abi": [
    {
      "inputs": [
        {
          "internalType": "address",
          "name": "_node",
          "type": "address"
        }
      ],
      "name": "addNode",
      "outputs": [],
      "stateMutability": "nonpayable",
      "type": "function"
    },
    {
      "inputs": [
        {
          "internalType": "bytes32[]",
          "name": "votecode",
          "type": "bytes32[]"
        }
      ],
      "name": "addVote",
      "outputs": [],
      "stateMutability": "nonpayable",
      "type": "function"
    },
    {
      "inputs": [
        {
          "internalType": "bytes2",
          "name": "centralPollCode",
          "type": "bytes2"
        }
      ],
      "name": "centralPollExists",
      "outputs": [
        {
          "internalType": "bool",
          "name": "",
          "type": "bool"
        }
      ],
      "stateMutability": "view",
      "type": "function"
    },
    {
      "inputs": [
        {
          "internalType": "bytes4",
          "name": "departmentPollCode",
          "type": "bytes4"
        }
      ],
      "name": "departmentPollExists",
      "outputs": [
        {
          "internalType": "bool",
          "name": "",
          "type": "bool"
        }
      ],
      "stateMutability": "view",
      "type": "function"
    },
    {
      "inputs": [],
      "name": "end",
      "outputs": [
        {
          "internalType": "bool",
          "name": "",
          "type": "bool"
        }
      ],
      "stateMutability": "view",
      "type": "function"
    },
    {
      "inputs": [],
      "name": "endElection",
      "outputs": [],
      "stateMutability": "nonpayable",
      "type": "function"
    },
    {
      "inputs": [
        {
          "internalType": "bytes2",
          "name": "pollPositionCode",
          "type": "bytes2"
        }
      ],
      "name": "getCentralPollDetails",
      "outputs": [
        {
          "internalType": "uint256[4]",
          "name": "details",
          "type": "uint256[4]"
        }
      ],
      "stateMutability": "view",
      "type": "function"
    },
    {
      "inputs": [
        {
          "internalType": "bytes2",
          "name": "pollPositionCode",
          "type": "bytes2"
        }
      ],
      "name": "getCentralPollVotes",
      "outputs": [
        {
          "internalType": "uint256[]",
          "name": "",
          "type": "uint256[]"
        }
      ],
      "stateMutability": "view",
      "type": "function"
    },
    {
      "inputs": [
        {
          "internalType": "bytes4",
          "name": "pollDepartmentPositionCode",
          "type": "bytes4"
        }
      ],
      "name": "getDepartmentPollDetails",
      "outputs": [
        {
          "internalType": "uint256[4]",
          "name": "details",
          "type": "uint256[4]"
        }
      ],
      "stateMutability": "view",
      "type": "function"
    },
    {
      "inputs": [
        {
          "internalType": "bytes2",
          "name": "pollDepartmentPositionCode",
          "type": "bytes2"
        }
      ],
      "name": "getDepartmentPollVotes",
      "outputs": [
        {
          "internalType": "uint256[]",
          "name": "",
          "type": "uint256[]"
        }
      ],
      "stateMutability": "view",
      "type": "function"
    },
    {
      "inputs": [
        {
          "internalType": "bytes4",
          "name": "pollHostelPositionCode",
          "type": "bytes4"
        }
      ],
      "name": "getHostelPollDetails",
      "outputs": [
        {
          "internalType": "uint256[4]",
          "name": "details",
          "type": "uint256[4]"
        }
      ],
      "stateMutability": "view",
      "type": "function"
    },
    {
      "inputs": [
        {
          "internalType": "bytes4",
          "name": "pollHostelPositionCode",
          "type": "bytes4"
        }
      ],
      "name": "getHostelPollVotes",
      "outputs": [
        {
          "internalType": "uint256[]",
          "name": "",
          "type": "uint256[]"
        }
      ],
      "stateMutability": "view",
      "type": "function"
    },
    {
      "inputs": [
        {
          "internalType": "bytes4",
          "name": "hostelPollCode",
          "type": "bytes4"
        }
      ],
      "name": "hostelPollExists",
      "outputs": [
        {
          "internalType": "bool",
          "name": "",
          "type": "bool"
        }
      ],
      "stateMutability": "view",
      "type": "function"
    },
    {
      "inputs": [],
      "name": "start",
      "outputs": [
        {
          "internalType": "bool",
          "name": "",
          "type": "bool"
        }
      ],
      "stateMutability": "view",
      "type": "function"
    },
    {
      "inputs": [],
      "name": "startElection",
      "outputs": [],
      "stateMutability": "nonpayable",
      "type": "function"
    },
    {
      "inputs": [],
      "name": "viewElectionEnded",
      "outputs": [
        {
          "internalType": "bool",
          "name": "",
          "type": "bool"
        }
      ],
      "stateMutability": "view",
      "type": "function"
    },
    {
      "inputs": [],
      "name": "viewElectionStarted",
      "outputs": [
        {
          "internalType": "bool",
          "name": "",
          "type": "bool"
        }
      ],
      "stateMutability": "view",
      "type": "function"
    },
    {
      "inputs": [],
      "name": "viewNodes",
      "outputs": [
        {
          "internalType": "address[]",
          "name": "",
          "type": "address[]"
        }
      ],
      "stateMutability": "view",
      "type": "function"
    }
  ],
  "bytecode": "0x60806040526000600660006101000a81548160ff0219169083151502179055506000600660016101000a81548160ff0219169083151502179055503480156200004757600080fd5b50336000806101000a81548173ffffffffffffffffffffffffffffffffffffffff021916908373ffffffffffffffffffffffffffffffffffffffff160217905550620000926200c0e8565b600381606001818152505080600560007f414b4753000000000000000000000000000000000000000000000000000000007bffffffffffffffffffffffffffffffffffffffffffffffffffffffff19168152602001908152602001600020600082015181600001556020820151816001015560408201518160020155606082015181600301556080820151816004019080519060200190620001369291906200c117565b509050506008806001815401808255809150506001900390600052602060002090600891828204019190066004027f414b475300000000000000000000000000000000000000000000000000000000909190916101000a81548163ffffffff021916908360e01c0217905550620001ac6200c0e8565b600381606001818152505080600560007f414b4848000000000000000000000000000000000000000000000000000000007bffffffffffffffffffffffffffffffffffffffffffffffffffffffff19168152602001908152602001600020600082015181600001556020820151816001015560408201518160020155606082015181600301556080820151816004019080519060200190620002509291906200c117565b509050506008806001815401808255809150506001900390600052602060002090600891828204019190066004027f414b484800000000000000000000000000000000000000000000000000000000909190916101000a81548163ffffffff021916908360e01c0217905550620002c66200c0e8565b600381606001818152505080600560007f414b484c000000000000000000000000000000000000000000000000000000007bffffffffffffffffffffffffffffffffffffffffffffffffffffffff191681526020019081526020016000206000820151816000015560208201518160010155604082015181600201556060820151816003015560808201518160040190805190602001906200036a9291906200c117565b509050506008806001815401808255809150506001900390600052602060002090600891828204019190066004027f414b484c00000000000000000000000000000000000000000000000000000000909190916101000a81548163ffffffff021916908360e01c0217905550620003e06200c0e8565b600381606001818152505080600560007f414b4c53000000000000000000000000000000000000000000000000000000007bffffffffffffffffffffffffffffffffffffffffffffffffffffffff19168152602001908152602001600020600082015181600001556020820151816001015560408201518160020155606082015181600301556080820151816004019080519060200190620004849291906200c117565b509050506008806001815401808255809150506001900390600052602060002090600891828204019190066004027f414b4c5300000000000000000000000000000000000000000000000000000000909190916101000a81548163ffffffff021916908360e01c0217905550620004fa6200c0e8565b600381606001818152505080600560007f414b534f000000000000000000000000000000000000000000000000000000007bffffffffffffffffffffffffffffffffffffffffffffffffffffffff191681526020019081526020016000206000820151816000015560208201518160010155604082015181600201556060820151816003015560808201518160040190805190602001906200059e9291906200c117565b509050506008806001815401808255809150506001900390600052602060002090600891828204019190066004027f414b534f00000000000000000000000000000000000000000000000000000000909190916101000a81548163ffffffff021916908360e01c0217905550620006146200c0e8565b600381606001818152505080600560007f414b5350000000000000000000000000000000000000000000000000000000007bffffffffffffffffffffffffffffffffffffffffffffffffffffffff19168152602001908152602001600020600082015181600001556020820151816001015560408201518160020155606082015181600301556080820151816004019080519060200190620006b89291906200c117565b509050506008806001815401808255809150506001900390600052602060002090600891828204019190066004027f414b535000000000000000000000000000000000000000000000000000000000909190916101000a81548163ffffffff021916908360e01c02179055506200072e6200c0e8565b600381606001818152505080600560007f414b5453000000000000000000000000000000000000000000000000000000007bffffffffffffffffffffffffffffffffffffffffffffffffffffffff19168152602001908152602001600020600082015181600001556020820151816001015560408201518160020155606082015181600301556080820151816004019080519060200190620007d29291906200c117565b509050506008806001815401808255809150506001900390600052602060002090600891828204019190066004027f414b545300000000000000000000000000000000000000000000000000000000909190916101000a81548163ffffffff021916908360e01c0217905550620008486200c0e8565b600381606001818152505080600560007f42484753000000000000000000000000000000000000000000000000000000007bffffffffffffffffffffffffffffffffffffffffffffffffffffffff19168152602001908152602001600020600082015181600001556020820151816001015560408201518160020155606082015181600301556080820151816004019080519060200190620008ec9291906200c117565b509050506008806001815401808255809150506001900390600052602060002090600891828204019190066004027f4248475300000000000000000000000000000000000000000000000000000000909190916101000a81548163ffffffff021916908360e01c0217905550620009626200c0e8565b600381606001818152505080600560007f42484848000000000000000000000000000000000000000000000000000000007bffffffffffffffffffffffffffffffffffffffffffffffffffffffff1916815260200190815260200160002060008201518160000155602082015181600101556040820151816002015560608201518160030155608082015181600401908051906020019062000a069291906200c117565b509050506008806001815401808255809150506001900390600052602060002090600891828204019190066004027f4248484800000000000000000000000000000000000000000000000000000000909190916101000a81548163ffffffff021916908360e01c021790555062000a7c6200c0e8565b600381606001818152505080600560007f4248484c000000000000000000000000000000000000000000000000000000007bffffffffffffffffffffffffffffffffffffffffffffffffffffffff1916815260200190815260200160002060008201518160000155602082015181600101556040820151816002015560608201518160030155608082015181600401908051906020019062000b209291906200c117565b509050506008806001815401808255809150506001900390600052602060002090600891828204019190066004027f4248484c00000000000000000000000000000000000000000000000000000000909190916101000a81548163ffffffff021916908360e01c021790555062000b966200c0e8565b600381606001818152505080600560007f42484c53000000000000000000000000000000000000000000000000000000007bffffffffffffffffffffffffffffffffffffffffffffffffffffffff1916815260200190815260200160002060008201518160000155602082015181600101556040820151816002015560608201518160030155608082015181600401908051906020019062000c3a9291906200c117565b509050506008806001815401808255809150506001900390600052602060002090600891828204019190066004027f42484c5300000000000000000000000000000000000000000000000000000000909190916101000a81548163ffffffff021916908360e01c021790555062000cb06200c0e8565b600381606001818152505080600560007f4248534f000000000000000000000000000000000000000000000000000000007bffffffffffffffffffffffffffffffffffffffffffffffffffffffff1916815260200190815260200160002060008201518160000155602082015181600101556040820151816002015560608201518160030155608082015181600401908051906020019062000d549291906200c117565b509050506008806001815401808255809150506001900390600052602060002090600891828204019190066004027f4248534f00000000000000000000000000000000000000000000000000000000909190916101000a81548163ffffffff021916908360e01c021790555062000dca6200c0e8565b600381606001818152505080600560007f42485350000000000000000000000000000000000000000000000000000000007bffffffffffffffffffffffffffffffffffffffffffffffffffffffff1916815260200190815260200160002060008201518160000155602082015181600101556040820151816002015560608201518160030155608082015181600401908051906020019062000e6e9291906200c117565b509050506008806001815401808255809150506001900390600052602060002090600891828204019190066004027f4248535000000000000000000000000000000000000000000000000000000000909190916101000a81548163ffffffff021916908360e01c021790555062000ee46200c0e8565b600381606001818152505080600560007f42485453000000000000000000000000000000000000000000000000000000007bffffffffffffffffffffffffffffffffffffffffffffffffffffffff1916815260200190815260200160002060008201518160000155602082015181600101556040820151816002015560608201518160030155608082015181600401908051906020019062000f889291906200c117565b509050506008806001815401808255809150506001900390600052602060002090600891828204019190066004027f4248545300000000000000000000000000000000000000000000000000000000909190916101000a81548163ffffffff021916908360e01c021790555062000ffe6200c0e8565b600381606001818152505080600560007f42524753000000000000000000000000000000000000000000000000000000007bffffffffffffffffffffffffffffffffffffffffffffffffffffffff19168152602001908152602001600020600082015181600001556020820151816001015560408201518160020155606082015181600301556080820151816004019080519060200190620010a29291906200c117565b509050506008806001815401808255809150506001900390600052602060002090600891828204019190066004027f4252475300000000000000000000000000000000000000000000000000000000909190916101000a81548163ffffffff021916908360e01c0217905550620011186200c0e8565b600381606001818152505080600560007f42524848000000000000000000000000000000000000000000000000000000007bffffffffffffffffffffffffffffffffffffffffffffffffffffffff19168152602001908152602001600020600082015181600001556020820151816001015560408201518160020155606082015181600301556080820151816004019080519060200190620011bc9291906200c117565b509050506008806001815401808255809150506001900390600052602060002090600891828204019190066004027f4252484800000000000000000000000000000000000000000000000000000000909190916101000a81548163ffffffff021916908360e01c0217905550620012326200c0e8565b600381606001818152505080600560007f4252484c000000000000000000000000000000000000000000000000000000007bffffffffffffffffffffffffffffffffffffffffffffffffffffffff19168152602001908152602001600020600082015181600001556020820151816001015560408201518160020155606082015181600301556080820151816004019080519060200190620012d69291906200c117565b509050506008806001815401808255809150506001900390600052602060002090600891828204019190066004027f4252484c00000000000000000000000000000000000000000000000000000000909190916101000a81548163ffffffff021916908360e01c02179055506200134c6200c0e8565b600381606001818152505080600560007f42524c53000000000000000000000000000000000000000000000000000000007bffffffffffffffffffffffffffffffffffffffffffffffffffffffff19168152602001908152602001600020600082015181600001556020820151816001015560408201518160020155606082015181600301556080820151816004019080519060200190620013f09291906200c117565b509050506008806001815401808255809150506001900390600052602060002090600891828204019190066004027f42524c5300000000000000000000000000000000000000000000000000000000909190916101000a81548163ffffffff021916908360e01c0217905550620014666200c0e8565b600381606001818152505080600560007f4252534f000000000000000000000000000000000000000000000000000000007bffffffffffffffffffffffffffffffffffffffffffffffffffffffff191681526020019081526020016000206000820151816000015560208201518160010155604082015181600201556060820151816003015560808201518160040190805190602001906200150a9291906200c117565b509050506008806001815401808255809150506001900390600052602060002090600891828204019190066004027f4252534f00000000000000000000000000000000000000000000000000000000909190916101000a81548163ffffffff021916908360e01c0217905550620015806200c0e8565b600381606001818152505080600560007f42525350000000000000000000000000000000000000000000000000000000007bffffffffffffffffffffffffffffffffffffffffffffffffffffffff19168152602001908152602001600020600082015181600001556020820151816001015560408201518160020155606082015181600301556080820151816004019080519060200190620016249291906200c117565b509050506008806001815401808255809150506001900390600052602060002090600891828204019190066004027f4252535000000000000000000000000000000000000000000000000000000000909190916101000a81548163ffffffff021916908360e01c02179055506200169a6200c0e8565b600381606001818152505080600560007f42525453000000000000000000000000000000000000000000000000000000007bffffffffffffffffffffffffffffffffffffffffffffffffffffffff191681526020019081526020016000206000820151816000015560208201518160010155604082015181600201556060820151816003015560808201518160040190805190602001906200173e9291906200c117565b509050506008806001815401808255809150506001900390600052602060002090600891828204019190066004027f4252545300000000000000000000000000000000000000000000000000000000909190916101000a81548163ffffffff021916908360e01c0217905550620017b46200c0e8565b600381606001818152505080600560007f43414753000000000000000000000000000000000000000000000000000000007bffffffffffffffffffffffffffffffffffffffffffffffffffffffff19168152602001908152602001600020600082015181600001556020820151816001015560408201518160020155606082015181600301556080820151816004019080519060200190620018589291906200c117565b509050506008806001815401808255809150506001900390600052602060002090600891828204019190066004027f4341475300000000000000000000000000000000000000000000000000000000909190916101000a81548163ffffffff021916908360e01c0217905550620018ce6200c0e8565b600381606001818152505080600560007f43414848000000000000000000000000000000000000000000000000000000007bffffffffffffffffffffffffffffffffffffffffffffffffffffffff19168152602001908152602001600020600082015181600001556020820151816001015560408201518160020155606082015181600301556080820151816004019080519060200190620019729291906200c117565b509050506008806001815401808255809150506001900390600052602060002090600891828204019190066004027f4341484800000000000000000000000000000000000000000000000000000000909190916101000a81548163ffffffff021916908360e01c0217905550620019e86200c0e8565b600381606001818152505080600560007f4341484c000000000000000000000000000000000000000000000000000000007bffffffffffffffffffffffffffffffffffffffffffffffffffffffff1916815260200190815260200160002060008201518160000155602082015181600101556040820151816002015560608201518160030155608082015181600401908051906020019062001a8c9291906200c117565b509050506008806001815401808255809150506001900390600052602060002090600891828204019190066004027f4341484c00000000000000000000000000000000000000000000000000000000909190916101000a81548163ffffffff021916908360e01c021790555062001b026200c0e8565b600381606001818152505080600560007f43414c53000000000000000000000000000000000000000000000000000000007bffffffffffffffffffffffffffffffffffffffffffffffffffffffff1916815260200190815260200160002060008201518160000155602082015181600101556040820151816002015560608201518160030155608082015181600401908051906020019062001ba69291906200c117565b509050506008806001815401808255809150506001900390600052602060002090600891828204019190066004027f43414c5300000000000000000000000000000000000000000000000000000000909190916101000a81548163ffffffff021916908360e01c021790555062001c1c6200c0e8565b600381606001818152505080600560007f4341534f000000000000000000000000000000000000000000000000000000007bffffffffffffffffffffffffffffffffffffffffffffffffffffffff1916815260200190815260200160002060008201518160000155602082015181600101556040820151816002015560608201518160030155608082015181600401908051906020019062001cc09291906200c117565b509050506008806001815401808255809150506001900390600052602060002090600891828204019190066004027f4341534f00000000000000000000000000000000000000000000000000000000909190916101000a81548163ffffffff021916908360e01c021790555062001d366200c0e8565b600381606001818152505080600560007f43415350000000000000000000000000000000000000000000000000000000007bffffffffffffffffffffffffffffffffffffffffffffffffffffffff1916815260200190815260200160002060008201518160000155602082015181600101556040820151816002015560608201518160030155608082015181600401908051906020019062001dda9291906200c117565b509050506008806001815401808255809150506001900390600052602060002090600891828204019190066004027f4341535000000000000000000000000000000000000000000000000000000000909190916101000a81548163ffffffff021916908360e01c021790555062001e506200c0e8565b600381606001818152505080600560007f43415453000000000000000000000000000000000000000000000000000000007bffffffffffffffffffffffffffffffffffffffffffffffffffffffff1916815260200190815260200160002060008201518160000155602082015181600101556040820151816002015560608201518160030155608082015181600401908051906020019062001ef49291906200c117565b509050506008806001815401808255809150506001900390600052602060002090600891828204019190066004027f4341545300000000000000000000000000000000000000000000000000000000909190916101000a81548163ffffffff021916908360e01c021790555062001f6a6200c0e8565b600381606001818152505080600560007f474e4753000000000000000000000000000000000000000000000000000000007bffffffffffffffffffffffffffffffffffffffffffffffffffffffff191681526020019081526020016000206000820151816000015560208201518160010155604082015181600201556060820151816003015560808201518160040190805190602001906200200e9291906200c117565b509050506008806001815401808255809150506001900390600052602060002090600891828204019190066004027f474e475300000000000000000000000000000000000000000000000000000000909190916101000a81548163ffffffff021916908360e01c0217905550620020846200c0e8565b600381606001818152505080600560007f474e4848000000000000000000000000000000000000000000000000000000007bffffffffffffffffffffffffffffffffffffffffffffffffffffffff19168152602001908152602001600020600082015181600001556020820151816001015560408201518160020155606082015181600301556080820151816004019080519060200190620021289291906200c117565b509050506008806001815401808255809150506001900390600052602060002090600891828204019190066004027f474e484800000000000000000000000000000000000000000000000000000000909190916101000a81548163ffffffff021916908360e01c02179055506200219e6200c0e8565b600381606001818152505080600560007f474e484c000000000000000000000000000000000000000000000000000000007bffffffffffffffffffffffffffffffffffffffffffffffffffffffff19168152602001908152602001600020600082015181600001556020820151816001015560408201518160020155606082015181600301556080820151816004019080519060200190620022429291906200c117565b509050506008806001815401808255809150506001900390600052602060002090600891828204019190066004027f474e484c00000000000000000000000000000000000000000000000000000000909190916101000a81548163ffffffff021916908360e01c0217905550620022b86200c0e8565b600381606001818152505080600560007f474e4c53000000000000000000000000000000000000000000000000000000007bffffffffffffffffffffffffffffffffffffffffffffffffffffffff191681526020019081526020016000206000820151816000015560208201518160010155604082015181600201556060820151816003015560808201518160040190805190602001906200235c9291906200c117565b509050506008806001815401808255809150506001900390600052602060002090600891828204019190066004027f474e4c5300000000000000000000000000000000000000000000000000000000909190916101000a81548163ffffffff021916908360e01c0217905550620023d26200c0e8565b600381606001818152505080600560007f474e534f000000000000000000000000000000000000000000000000000000007bffffffffffffffffffffffffffffffffffffffffffffffffffffffff19168152602001908152602001600020600082015181600001556020820151816001015560408201518160020155606082015181600301556080820151816004019080519060200190620024769291906200c117565b509050506008806001815401808255809150506001900390600052602060002090600891828204019190066004027f474e534f00000000000000000000000000000000000000000000000000000000909190916101000a81548163ffffffff021916908360e01c0217905550620024ec6200c0e8565b600381606001818152505080600560007f474e5350000000000000000000000000000000000000000000000000000000007bffffffffffffffffffffffffffffffffffffffffffffffffffffffff19168152602001908152602001600020600082015181600001556020820151816001015560408201518160020155606082015181600301556080820151816004019080519060200190620025909291906200c117565b509050506008806001815401808255809150506001900390600052602060002090600891828204019190066004027f474e535000000000000000000000000000000000000000000000000000000000909190916101000a81548163ffffffff021916908360e01c0217905550620026066200c0e8565b600381606001818152505080600560007f474e5453000000000000000000000000000000000000000000000000000000007bffffffffffffffffffffffffffffffffffffffffffffffffffffffff19168152602001908152602001600020600082015181600001556020820151816001015560408201518160020155606082015181600301556080820151816004019080519060200190620026aa9291906200c117565b509050506008806001815401808255809150506001900390600052602060002090600891828204019190066004027f474e545300000000000000000000000000000000000000000000000000000000909190916101000a81548163ffffffff021916908360e01c0217905550620027206200c0e8565b600381606001818152505080600560007f47444753000000000000000000000000000000000000000000000000000000007bffffffffffffffffffffffffffffffffffffffffffffffffffffffff19168152602001908152602001600020600082015181600001556020820151816001015560408201518160020155606082015181600301556080820151816004019080519060200190620027c49291906200c117565b509050506008806001815401808255809150506001900390600052602060002090600891828204019190066004027f4744475300000000000000000000000000000000000000000000000000000000909190916101000a81548163ffffffff021916908360e01c02179055506200283a6200c0e8565b600381606001818152505080600560007f47444848000000000000000000000000000000000000000000000000000000007bffffffffffffffffffffffffffffffffffffffffffffffffffffffff19168152602001908152602001600020600082015181600001556020820151816001015560408201518160020155606082015181600301556080820151816004019080519060200190620028de9291906200c117565b509050506008806001815401808255809150506001900390600052602060002090600891828204019190066004027f4744484800000000000000000000000000000000000000000000000000000000909190916101000a81548163ffffffff021916908360e01c0217905550620029546200c0e8565b600381606001818152505080600560007f4744484c000000000000000000000000000000000000000000000000000000007bffffffffffffffffffffffffffffffffffffffffffffffffffffffff19168152602001908152602001600020600082015181600001556020820151816001015560408201518160020155606082015181600301556080820151816004019080519060200190620029f89291906200c117565b509050506008806001815401808255809150506001900390600052602060002090600891828204019190066004027f4744484c00000000000000000000000000000000000000000000000000000000909190916101000a81548163ffffffff021916908360e01c021790555062002a6e6200c0e8565b600381606001818152505080600560007f47444c53000000000000000000000000000000000000000000000000000000007bffffffffffffffffffffffffffffffffffffffffffffffffffffffff1916815260200190815260200160002060008201518160000155602082015181600101556040820151816002015560608201518160030155608082015181600401908051906020019062002b129291906200c117565b509050506008806001815401808255809150506001900390600052602060002090600891828204019190066004027f47444c5300000000000000000000000000000000000000000000000000000000909190916101000a81548163ffffffff021916908360e01c021790555062002b886200c0e8565b600381606001818152505080600560007f4744534f000000000000000000000000000000000000000000000000000000007bffffffffffffffffffffffffffffffffffffffffffffffffffffffff1916815260200190815260200160002060008201518160000155602082015181600101556040820151816002015560608201518160030155608082015181600401908051906020019062002c2c9291906200c117565b509050506008806001815401808255809150506001900390600052602060002090600891828204019190066004027f4744534f00000000000000000000000000000000000000000000000000000000909190916101000a81548163ffffffff021916908360e01c021790555062002ca26200c0e8565b600381606001818152505080600560007f47445350000000000000000000000000000000000000000000000000000000007bffffffffffffffffffffffffffffffffffffffffffffffffffffffff1916815260200190815260200160002060008201518160000155602082015181600101556040820151816002015560608201518160030155608082015181600401908051906020019062002d469291906200c117565b509050506008806001815401808255809150506001900390600052602060002090600891828204019190066004027f4744535000000000000000000000000000000000000000000000000000000000909190916101000a81548163ffffffff021916908360e01c021790555062002dbc6200c0e8565b600381606001818152505080600560007f47445453000000000000000000000000000000000000000000000000000000007bffffffffffffffffffffffffffffffffffffffffffffffffffffffff1916815260200190815260200160002060008201518160000155602082015181600101556040820151816002015560608201518160030155608082015181600401908051906020019062002e609291906200c117565b509050506008806001815401808255809150506001900390600052602060002090600891828204019190066004027f4744545300000000000000000000000000000000000000000000000000000000909190916101000a81548163ffffffff021916908360e01c021790555050505050505050505050505050505050505050505050505050505050505050505050505050505050505062002f006200c0e8565b600381606001818152505080600560007f4a4d4848000000000000000000000000000000000000000000000000000000007bffffffffffffffffffffffffffffffffffffffffffffffffffffffff1916815260200190815260200160002060008201518160000155602082015181600101556040820151816002015560608201518160030155608082015181600401908051906020019062002fa49291906200c117565b509050506008806001815401808255809150506001900390600052602060002090600891828204019190066004027f4a4d484800000000000000000000000000000000000000000000000000000000909190916101000a81548163ffffffff021916908360e01c02179055506200301a6200c0e8565b600381606001818152505080600560007f4a4d484c000000000000000000000000000000000000000000000000000000007bffffffffffffffffffffffffffffffffffffffffffffffffffffffff19168152602001908152602001600020600082015181600001556020820151816001015560408201518160020155606082015181600301556080820151816004019080519060200190620030be9291906200c117565b509050506008806001815401808255809150506001900390600052602060002090600891828204019190066004027f4a4d484c00000000000000000000000000000000000000000000000000000000909190916101000a81548163ffffffff021916908360e01c0217905550620031346200c0e8565b600381606001818152505080600560007f4a4d4c53000000000000000000000000000000000000000000000000000000007bffffffffffffffffffffffffffffffffffffffffffffffffffffffff19168152602001908152602001600020600082015181600001556020820151816001015560408201518160020155606082015181600301556080820151816004019080519060200190620031d89291906200c117565b509050506008806001815401808255809150506001900390600052602060002090600891828204019190066004027f4a4d4c5300000000000000000000000000000000000000000000000000000000909190916101000a81548163ffffffff021916908360e01c02179055506200324e6200c0e8565b600381606001818152505080600560007f4a4d534f000000000000000000000000000000000000000000000000000000007bffffffffffffffffffffffffffffffffffffffffffffffffffffffff19168152602001908152602001600020600082015181600001556020820151816001015560408201518160020155606082015181600301556080820151816004019080519060200190620032f29291906200c117565b509050506008806001815401808255809150506001900390600052602060002090600891828204019190066004027f4a4d534f00000000000000000000000000000000000000000000000000000000909190916101000a81548163ffffffff021916908360e01c0217905550620033686200c0e8565b600381606001818152505080600560007f4a4d5350000000000000000000000000000000000000000000000000000000007bffffffffffffffffffffffffffffffffffffffffffffffffffffffff191681526020019081526020016000206000820151816000015560208201518160010155604082015181600201556060820151816003015560808201518160040190805190602001906200340c9291906200c117565b509050506008806001815401808255809150506001900390600052602060002090600891828204019190066004027f4a4d535000000000000000000000000000000000000000000000000000000000909190916101000a81548163ffffffff021916908360e01c0217905550620034826200c0e8565b600381606001818152505080600560007f4a4d5453000000000000000000000000000000000000000000000000000000007bffffffffffffffffffffffffffffffffffffffffffffffffffffffff19168152602001908152602001600020600082015181600001556020820151816001015560408201518160020155606082015181600301556080820151816004019080519060200190620035269291906200c117565b509050506008806001815401808255809150506001900390600052602060002090600891828204019190066004027f4a4d545300000000000000000000000000000000000000000000000000000000909190916101000a81548163ffffffff021916908360e01c02179055506200359c6200c0e8565b600381606001818152505080600560007f4b524753000000000000000000000000000000000000000000000000000000007bffffffffffffffffffffffffffffffffffffffffffffffffffffffff19168152602001908152602001600020600082015181600001556020820151816001015560408201518160020155606082015181600301556080820151816004019080519060200190620036409291906200c117565b509050506008806001815401808255809150506001900390600052602060002090600891828204019190066004027f4b52475300000000000000000000000000000000000000000000000000000000909190916101000a81548163ffffffff021916908360e01c0217905550620036b66200c0e8565b600381606001818152505080600560007f4b524848000000000000000000000000000000000000000000000000000000007bffffffffffffffffffffffffffffffffffffffffffffffffffffffff191681526020019081526020016000206000820151816000015560208201518160010155604082015181600201556060820151816003015560808201518160040190805190602001906200375a9291906200c117565b509050506008806001815401808255809150506001900390600052602060002090600891828204019190066004027f4b52484800000000000000000000000000000000000000000000000000000000909190916101000a81548163ffffffff021916908360e01c0217905550620037d06200c0e8565b600381606001818152505080600560007f4b52484c000000000000000000000000000000000000000000000000000000007bffffffffffffffffffffffffffffffffffffffffffffffffffffffff19168152602001908152602001600020600082015181600001556020820151816001015560408201518160020155606082015181600301556080820151816004019080519060200190620038749291906200c117565b509050506008806001815401808255809150506001900390600052602060002090600891828204019190066004027f4b52484c00000000000000000000000000000000000000000000000000000000909190916101000a81548163ffffffff021916908360e01c0217905550620038ea6200c0e8565b600381606001818152505080600560007f4b524c53000000000000000000000000000000000000000000000000000000007bffffffffffffffffffffffffffffffffffffffffffffffffffffffff191681526020019081526020016000206000820151816000015560208201518160010155604082015181600201556060820151816003015560808201518160040190805190602001906200398e9291906200c117565b509050506008806001815401808255809150506001900390600052602060002090600891828204019190066004027f4b524c5300000000000000000000000000000000000000000000000000000000909190916101000a81548163ffffffff021916908360e01c021790555062003a046200c0e8565b600381606001818152505080600560007f4b52534f000000000000000000000000000000000000000000000000000000007bffffffffffffffffffffffffffffffffffffffffffffffffffffffff1916815260200190815260200160002060008201518160000155602082015181600101556040820151816002015560608201518160030155608082015181600401908051906020019062003aa89291906200c117565b509050506008806001815401808255809150506001900390600052602060002090600891828204019190066004027f4b52534f00000000000000000000000000000000000000000000000000000000909190916101000a81548163ffffffff021916908360e01c021790555062003b1e6200c0e8565b600381606001818152505080600560007f4b525350000000000000000000000000000000000000000000000000000000007bffffffffffffffffffffffffffffffffffffffffffffffffffffffff1916815260200190815260200160002060008201518160000155602082015181600101556040820151816002015560608201518160030155608082015181600401908051906020019062003bc29291906200c117565b509050506008806001815401808255809150506001900390600052602060002090600891828204019190066004027f4b52535000000000000000000000000000000000000000000000000000000000909190916101000a81548163ffffffff021916908360e01c021790555062003c386200c0e8565b600381606001818152505080600560007f4b525453000000000000000000000000000000000000000000000000000000007bffffffffffffffffffffffffffffffffffffffffffffffffffffffff1916815260200190815260200160002060008201518160000155602082015181600101556040820151816002015560608201518160030155608082015181600401908051906020019062003cdc9291906200c117565b509050506008806001815401808255809150506001900390600052602060002090600891828204019190066004027f4b52545300000000000000000000000000000000000000000000000000000000909190916101000a81548163ffffffff021916908360e01c021790555062003d526200c0e8565b600381606001818152505080600560007f4d484753000000000000000000000000000000000000000000000000000000007bffffffffffffffffffffffffffffffffffffffffffffffffffffffff1916815260200190815260200160002060008201518160000155602082015181600101556040820151816002015560608201518160030155608082015181600401908051906020019062003df69291906200c117565b509050506008806001815401808255809150506001900390600052602060002090600891828204019190066004027f4d48475300000000000000000000000000000000000000000000000000000000909190916101000a81548163ffffffff021916908360e01c021790555062003e6c6200c0e8565b600381606001818152505080600560007f4d484848000000000000000000000000000000000000000000000000000000007bffffffffffffffffffffffffffffffffffffffffffffffffffffffff1916815260200190815260200160002060008201518160000155602082015181600101556040820151816002015560608201518160030155608082015181600401908051906020019062003f109291906200c117565b509050506008806001815401808255809150506001900390600052602060002090600891828204019190066004027f4d48484800000000000000000000000000000000000000000000000000000000909190916101000a81548163ffffffff021916908360e01c021790555062003f866200c0e8565b600381606001818152505080600560007f4d48484c000000000000000000000000000000000000000000000000000000007bffffffffffffffffffffffffffffffffffffffffffffffffffffffff191681526020019081526020016000206000820151816000015560208201518160010155604082015181600201556060820151816003015560808201518160040190805190602001906200402a9291906200c117565b509050506008806001815401808255809150506001900390600052602060002090600891828204019190066004027f4d48484c00000000000000000000000000000000000000000000000000000000909190916101000a81548163ffffffff021916908360e01c0217905550620040a06200c0e8565b600381606001818152505080600560007f4d484c53000000000000000000000000000000000000000000000000000000007bffffffffffffffffffffffffffffffffffffffffffffffffffffffff19168152602001908152602001600020600082015181600001556020820151816001015560408201518160020155606082015181600301556080820151816004019080519060200190620041449291906200c117565b509050506008806001815401808255809150506001900390600052602060002090600891828204019190066004027f4d484c5300000000000000000000000000000000000000000000000000000000909190916101000a81548163ffffffff021916908360e01c0217905550620041ba6200c0e8565b600381606001818152505080600560007f4d48534f000000000000000000000000000000000000000000000000000000007bffffffffffffffffffffffffffffffffffffffffffffffffffffffff191681526020019081526020016000206000820151816000015560208201518160010155604082015181600201556060820151816003015560808201518160040190805190602001906200425e9291906200c117565b509050506008806001815401808255809150506001900390600052602060002090600891828204019190066004027f4d48534f00000000000000000000000000000000000000000000000000000000909190916101000a81548163ffffffff021916908360e01c0217905550620042d46200c0e8565b600381606001818152505080600560007f4d485350000000000000000000000000000000000000000000000000000000007bffffffffffffffffffffffffffffffffffffffffffffffffffffffff19168152602001908152602001600020600082015181600001556020820151816001015560408201518160020155606082015181600301556080820151816004019080519060200190620043789291906200c117565b509050506008806001815401808255809150506001900390600052602060002090600891828204019190066004027f4d48535000000000000000000000000000000000000000000000000000000000909190916101000a81548163ffffffff021916908360e01c0217905550620043ee6200c0e8565b600381606001818152505080600560007f4d485453000000000000000000000000000000000000000000000000000000007bffffffffffffffffffffffffffffffffffffffffffffffffffffffff19168152602001908152602001600020600082015181600001556020820151816001015560408201518160020155606082015181600301556080820151816004019080519060200190620044929291906200c117565b509050506008806001815401808255809150506001900390600052602060002090600891828204019190066004027f4d48545300000000000000000000000000000000000000000000000000000000909190916101000a81548163ffffffff021916908360e01c0217905550620045086200c0e8565b600381606001818152505080600560007f4d414753000000000000000000000000000000000000000000000000000000007bffffffffffffffffffffffffffffffffffffffffffffffffffffffff19168152602001908152602001600020600082015181600001556020820151816001015560408201518160020155606082015181600301556080820151816004019080519060200190620045ac9291906200c117565b509050506008806001815401808255809150506001900390600052602060002090600891828204019190066004027f4d41475300000000000000000000000000000000000000000000000000000000909190916101000a81548163ffffffff021916908360e01c0217905550620046226200c0e8565b600381606001818152505080600560007f4d414848000000000000000000000000000000000000000000000000000000007bffffffffffffffffffffffffffffffffffffffffffffffffffffffff19168152602001908152602001600020600082015181600001556020820151816001015560408201518160020155606082015181600301556080820151816004019080519060200190620046c69291906200c117565b509050506008806001815401808255809150506001900390600052602060002090600891828204019190066004027f4d41484800000000000000000000000000000000000000000000000000000000909190916101000a81548163ffffffff021916908360e01c02179055506200473c6200c0e8565b600381606001818152505080600560007f4d41484c000000000000000000000000000000000000000000000000000000007bffffffffffffffffffffffffffffffffffffffffffffffffffffffff19168152602001908152602001600020600082015181600001556020820151816001015560408201518160020155606082015181600301556080820151816004019080519060200190620047e09291906200c117565b509050506008806001815401808255809150506001900390600052602060002090600891828204019190066004027f4d41484c00000000000000000000000000000000000000000000000000000000909190916101000a81548163ffffffff021916908360e01c0217905550620048566200c0e8565b600381606001818152505080600560007f4d414c53000000000000000000000000000000000000000000000000000000007bffffffffffffffffffffffffffffffffffffffffffffffffffffffff19168152602001908152602001600020600082015181600001556020820151816001015560408201518160020155606082015181600301556080820151816004019080519060200190620048fa9291906200c117565b509050506008806001815401808255809150506001900390600052602060002090600891828204019190066004027f4d414c5300000000000000000000000000000000000000000000000000000000909190916101000a81548163ffffffff021916908360e01c0217905550620049706200c0e8565b600381606001818152505080600560007f4d41534f000000000000000000000000000000000000000000000000000000007bffffffffffffffffffffffffffffffffffffffffffffffffffffffff1916815260200190815260200160002060008201518160000155602082015181600101556040820151816002015560608201518160030155608082015181600401908051906020019062004a149291906200c117565b509050506008806001815401808255809150506001900390600052602060002090600891828204019190066004027f4d41534f00000000000000000000000000000000000000000000000000000000909190916101000a81548163ffffffff021916908360e01c021790555062004a8a6200c0e8565b600381606001818152505080600560007f4d415350000000000000000000000000000000000000000000000000000000007bffffffffffffffffffffffffffffffffffffffffffffffffffffffff1916815260200190815260200160002060008201518160000155602082015181600101556040820151816002015560608201518160030155608082015181600401908051906020019062004b2e9291906200c117565b509050506008806001815401808255809150506001900390600052602060002090600891828204019190066004027f4d41535000000000000000000000000000000000000000000000000000000000909190916101000a81548163ffffffff021916908360e01c021790555062004ba46200c0e8565b600381606001818152505080600560007f4d415453000000000000000000000000000000000000000000000000000000007bffffffffffffffffffffffffffffffffffffffffffffffffffffffff1916815260200190815260200160002060008201518160000155602082015181600101556040820151816002015560608201518160030155608082015181600401908051906020019062004c489291906200c117565b509050506008806001815401808255809150506001900390600052602060002090600891828204019190066004027f4d41545300000000000000000000000000000000000000000000000000000000909190916101000a81548163ffffffff021916908360e01c021790555050505050505050505050505050505050505050505050505050505062004cd96200c0e8565b600381606001818152505080600560007f4e4d4753000000000000000000000000000000000000000000000000000000007bffffffffffffffffffffffffffffffffffffffffffffffffffffffff1916815260200190815260200160002060008201518160000155602082015181600101556040820151816002015560608201518160030155608082015181600401908051906020019062004d7d9291906200c117565b509050506008806001815401808255809150506001900390600052602060002090600891828204019190066004027f4e4d475300000000000000000000000000000000000000000000000000000000909190916101000a81548163ffffffff021916908360e01c021790555062004df36200c0e8565b600381606001818152505080600560007f4e4d4848000000000000000000000000000000000000000000000000000000007bffffffffffffffffffffffffffffffffffffffffffffffffffffffff1916815260200190815260200160002060008201518160000155602082015181600101556040820151816002015560608201518160030155608082015181600401908051906020019062004e979291906200c117565b509050506008806001815401808255809150506001900390600052602060002090600891828204019190066004027f4e4d484800000000000000000000000000000000000000000000000000000000909190916101000a81548163ffffffff021916908360e01c021790555062004f0d6200c0e8565b600381606001818152505080600560007f4e4d484c000000000000000000000000000000000000000000000000000000007bffffffffffffffffffffffffffffffffffffffffffffffffffffffff1916815260200190815260200160002060008201518160000155602082015181600101556040820151816002015560608201518160030155608082015181600401908051906020019062004fb19291906200c117565b509050506008806001815401808255809150506001900390600052602060002090600891828204019190066004027f4e4d484c00000000000000000000000000000000000000000000000000000000909190916101000a81548163ffffffff021916908360e01c0217905550620050276200c0e8565b600381606001818152505080600560007f4e4d4c53000000000000000000000000000000000000000000000000000000007bffffffffffffffffffffffffffffffffffffffffffffffffffffffff19168152602001908152602001600020600082015181600001556020820151816001015560408201518160020155606082015181600301556080820151816004019080519060200190620050cb9291906200c117565b509050506008806001815401808255809150506001900390600052602060002090600891828204019190066004027f4e4d4c5300000000000000000000000000000000000000000000000000000000909190916101000a81548163ffffffff021916908360e01c0217905550620051416200c0e8565b600381606001818152505080600560007f4e4d534f000000000000000000000000000000000000000000000000000000007bffffffffffffffffffffffffffffffffffffffffffffffffffffffff19168152602001908152602001600020600082015181600001556020820151816001015560408201518160020155606082015181600301556080820151816004019080519060200190620051e59291906200c117565b509050506008806001815401808255809150506001900390600052602060002090600891828204019190066004027f4e4d534f00000000000000000000000000000000000000000000000000000000909190916101000a81548163ffffffff021916908360e01c02179055506200525b6200c0e8565b600381606001818152505080600560007f4e4d5350000000000000000000000000000000000000000000000000000000007bffffffffffffffffffffffffffffffffffffffffffffffffffffffff19168152602001908152602001600020600082015181600001556020820151816001015560408201518160020155606082015181600301556080820151816004019080519060200190620052ff9291906200c117565b509050506008806001815401808255809150506001900390600052602060002090600891828204019190066004027f4e4d535000000000000000000000000000000000000000000000000000000000909190916101000a81548163ffffffff021916908360e01c0217905550620053756200c0e8565b600381606001818152505080600560007f4e4d5453000000000000000000000000000000000000000000000000000000007bffffffffffffffffffffffffffffffffffffffffffffffffffffffff19168152602001908152602001600020600082015181600001556020820151816001015560408201518160020155606082015181600301556080820151816004019080519060200190620054199291906200c117565b509050506008806001815401808255809150506001900390600052602060002090600891828204019190066004027f4e4d545300000000000000000000000000000000000000000000000000000000909190916101000a81548163ffffffff021916908360e01c02179055506200548f6200c0e8565b600381606001818152505080600560007f504d4753000000000000000000000000000000000000000000000000000000007bffffffffffffffffffffffffffffffffffffffffffffffffffffffff19168152602001908152602001600020600082015181600001556020820151816001015560408201518160020155606082015181600301556080820151816004019080519060200190620055339291906200c117565b509050506008806001815401808255809150506001900390600052602060002090600891828204019190066004027f504d475300000000000000000000000000000000000000000000000000000000909190916101000a81548163ffffffff021916908360e01c0217905550620055a96200c0e8565b600381606001818152505080600560007f504d4848000000000000000000000000000000000000000000000000000000007bffffffffffffffffffffffffffffffffffffffffffffffffffffffff191681526020019081526020016000206000820151816000015560208201518160010155604082015181600201556060820151816003015560808201518160040190805190602001906200564d9291906200c117565b509050506008806001815401808255809150506001900390600052602060002090600891828204019190066004027f504d484800000000000000000000000000000000000000000000000000000000909190916101000a81548163ffffffff021916908360e01c0217905550620056c36200c0e8565b600381606001818152505080600560007f504d484c000000000000000000000000000000000000000000000000000000007bffffffffffffffffffffffffffffffffffffffffffffffffffffffff19168152602001908152602001600020600082015181600001556020820151816001015560408201518160020155606082015181600301556080820151816004019080519060200190620057679291906200c117565b509050506008806001815401808255809150506001900390600052602060002090600891828204019190066004027f504d484c00000000000000000000000000000000000000000000000000000000909190916101000a81548163ffffffff021916908360e01c0217905550620057dd6200c0e8565b600381606001818152505080600560007f504d4c53000000000000000000000000000000000000000000000000000000007bffffffffffffffffffffffffffffffffffffffffffffffffffffffff19168152602001908152602001600020600082015181600001556020820151816001015560408201518160020155606082015181600301556080820151816004019080519060200190620058819291906200c117565b509050506008806001815401808255809150506001900390600052602060002090600891828204019190066004027f504d4c5300000000000000000000000000000000000000000000000000000000909190916101000a81548163ffffffff021916908360e01c0217905550620058f76200c0e8565b600381606001818152505080600560007f504d534f000000000000000000000000000000000000000000000000000000007bffffffffffffffffffffffffffffffffffffffffffffffffffffffff191681526020019081526020016000206000820151816000015560208201518160010155604082015181600201556060820151816003015560808201518160040190805190602001906200599b9291906200c117565b509050506008806001815401808255809150506001900390600052602060002090600891828204019190066004027f504d534f00000000000000000000000000000000000000000000000000000000909190916101000a81548163ffffffff021916908360e01c021790555062005a116200c0e8565b600381606001818152505080600560007f504d5350000000000000000000000000000000000000000000000000000000007bffffffffffffffffffffffffffffffffffffffffffffffffffffffff1916815260200190815260200160002060008201518160000155602082015181600101556040820151816002015560608201518160030155608082015181600401908051906020019062005ab59291906200c117565b509050506008806001815401808255809150506001900390600052602060002090600891828204019190066004027f504d535000000000000000000000000000000000000000000000000000000000909190916101000a81548163ffffffff021916908360e01c021790555062005b2b6200c0e8565b600381606001818152505080600560007f504d5453000000000000000000000000000000000000000000000000000000007bffffffffffffffffffffffffffffffffffffffffffffffffffffffff1916815260200190815260200160002060008201518160000155602082015181600101556040820151816002015560608201518160030155608082015181600401908051906020019062005bcf9291906200c117565b509050506008806001815401808255809150506001900390600052602060002090600891828204019190066004027f504d545300000000000000000000000000000000000000000000000000000000909190916101000a81548163ffffffff021916908360e01c021790555062005c456200c0e8565b600381606001818152505080600560007f534d4753000000000000000000000000000000000000000000000000000000007bffffffffffffffffffffffffffffffffffffffffffffffffffffffff1916815260200190815260200160002060008201518160000155602082015181600101556040820151816002015560608201518160030155608082015181600401908051906020019062005ce99291906200c117565b509050506008806001815401808255809150506001900390600052602060002090600891828204019190066004027f534d475300000000000000000000000000000000000000000000000000000000909190916101000a81548163ffffffff021916908360e01c021790555062005d5f6200c0e8565b600381606001818152505080600560007f534d4848000000000000000000000000000000000000000000000000000000007bffffffffffffffffffffffffffffffffffffffffffffffffffffffff1916815260200190815260200160002060008201518160000155602082015181600101556040820151816002015560608201518160030155608082015181600401908051906020019062005e039291906200c117565b509050506008806001815401808255809150506001900390600052602060002090600891828204019190066004027f534d484800000000000000000000000000000000000000000000000000000000909190916101000a81548163ffffffff021916908360e01c021790555062005e796200c0e8565b600381606001818152505080600560007f534d484c000000000000000000000000000000000000000000000000000000007bffffffffffffffffffffffffffffffffffffffffffffffffffffffff1916815260200190815260200160002060008201518160000155602082015181600101556040820151816002015560608201518160030155608082015181600401908051906020019062005f1d9291906200c117565b509050506008806001815401808255809150506001900390600052602060002090600891828204019190066004027f534d484c00000000000000000000000000000000000000000000000000000000909190916101000a81548163ffffffff021916908360e01c021790555062005f936200c0e8565b600381606001818152505080600560007f534d4c53000000000000000000000000000000000000000000000000000000007bffffffffffffffffffffffffffffffffffffffffffffffffffffffff19168152602001908152602001600020600082015181600001556020820151816001015560408201518160020155606082015181600301556080820151816004019080519060200190620060379291906200c117565b509050506008806001815401808255809150506001900390600052602060002090600891828204019190066004027f534d4c5300000000000000000000000000000000000000000000000000000000909190916101000a81548163ffffffff021916908360e01c0217905550620060ad6200c0e8565b600381606001818152505080600560007f534d534f000000000000000000000000000000000000000000000000000000007bffffffffffffffffffffffffffffffffffffffffffffffffffffffff19168152602001908152602001600020600082015181600001556020820151816001015560408201518160020155606082015181600301556080820151816004019080519060200190620061519291906200c117565b509050506008806001815401808255809150506001900390600052602060002090600891828204019190066004027f534d534f00000000000000000000000000000000000000000000000000000000909190916101000a81548163ffffffff021916908360e01c0217905550620061c76200c0e8565b600381606001818152505080600560007f534d5350000000000000000000000000000000000000000000000000000000007bffffffffffffffffffffffffffffffffffffffffffffffffffffffff191681526020019081526020016000206000820151816000015560208201518160010155604082015181600201556060820151816003015560808201518160040190805190602001906200626b9291906200c117565b509050506008806001815401808255809150506001900390600052602060002090600891828204019190066004027f534d535000000000000000000000000000000000000000000000000000000000909190916101000a81548163ffffffff021916908360e01c0217905550620062e16200c0e8565b600381606001818152505080600560007f534d5453000000000000000000000000000000000000000000000000000000007bffffffffffffffffffffffffffffffffffffffffffffffffffffffff19168152602001908152602001600020600082015181600001556020820151816001015560408201518160020155606082015181600301556080820151816004019080519060200190620063859291906200c117565b509050506008806001815401808255809150506001900390600052602060002090600891828204019190066004027f534d545300000000000000000000000000000000000000000000000000000000909190916101000a81548163ffffffff021916908360e01c0217905550620063fb6200c0e8565b600381606001818152505080600560007f53534753000000000000000000000000000000000000000000000000000000007bffffffffffffffffffffffffffffffffffffffffffffffffffffffff191681526020019081526020016000206000820151816000015560208201518160010155604082015181600201556060820151816003015560808201518160040190805190602001906200649f9291906200c117565b509050506008806001815401808255809150506001900390600052602060002090600891828204019190066004027f5353475300000000000000000000000000000000000000000000000000000000909190916101000a81548163ffffffff021916908360e01c0217905550620065156200c0e8565b600381606001818152505080600560007f53534848000000000000000000000000000000000000000000000000000000007bffffffffffffffffffffffffffffffffffffffffffffffffffffffff19168152602001908152602001600020600082015181600001556020820151816001015560408201518160020155606082015181600301556080820151816004019080519060200190620065b99291906200c117565b509050506008806001815401808255809150506001900390600052602060002090600891828204019190066004027f5353484800000000000000000000000000000000000000000000000000000000909190916101000a81548163ffffffff021916908360e01c02179055506200662f6200c0e8565b600381606001818152505080600560007f5353484c000000000000000000000000000000000000000000000000000000007bffffffffffffffffffffffffffffffffffffffffffffffffffffffff19168152602001908152602001600020600082015181600001556020820151816001015560408201518160020155606082015181600301556080820151816004019080519060200190620066d39291906200c117565b509050506008806001815401808255809150506001900390600052602060002090600891828204019190066004027f5353484c00000000000000000000000000000000000000000000000000000000909190916101000a81548163ffffffff021916908360e01c0217905550620067496200c0e8565b600381606001818152505080600560007f53534c53000000000000000000000000000000000000000000000000000000007bffffffffffffffffffffffffffffffffffffffffffffffffffffffff19168152602001908152602001600020600082015181600001556020820151816001015560408201518160020155606082015181600301556080820151816004019080519060200190620067ed9291906200c117565b509050506008806001815401808255809150506001900390600052602060002090600891828204019190066004027f53534c5300000000000000000000000000000000000000000000000000000000909190916101000a81548163ffffffff021916908360e01c0217905550620068636200c0e8565b600381606001818152505080600560007f5353534f000000000000000000000000000000000000000000000000000000007bffffffffffffffffffffffffffffffffffffffffffffffffffffffff19168152602001908152602001600020600082015181600001556020820151816001015560408201518160020155606082015181600301556080820151816004019080519060200190620069079291906200c117565b509050506008806001815401808255809150506001900390600052602060002090600891828204019190066004027f5353534f00000000000000000000000000000000000000000000000000000000909190916101000a81548163ffffffff021916908360e01c02179055506200697d6200c0e8565b600381606001818152505080600560007f53535350000000000000000000000000000000000000000000000000000000007bffffffffffffffffffffffffffffffffffffffffffffffffffffffff1916815260200190815260200160002060008201518160000155602082015181600101556040820151816002015560608201518160030155608082015181600401908051906020019062006a219291906200c117565b509050506008806001815401808255809150506001900390600052602060002090600891828204019190066004027f5353535000000000000000000000000000000000000000000000000000000000909190916101000a81548163ffffffff021916908360e01c021790555062006a976200c0e8565b600381606001818152505080600560007f53535453000000000000000000000000000000000000000000000000000000007bffffffffffffffffffffffffffffffffffffffffffffffffffffffff1916815260200190815260200160002060008201518160000155602082015181600101556040820151816002015560608201518160030155608082015181600401908051906020019062006b3b9291906200c117565b509050506008806001815401808255809150506001900390600052602060002090600891828204019190066004027f5353545300000000000000000000000000000000000000000000000000000000909190916101000a81548163ffffffff021916908360e01c021790555062006bb16200c0e8565b600381606001818152505080600560007f53484753000000000000000000000000000000000000000000000000000000007bffffffffffffffffffffffffffffffffffffffffffffffffffffffff1916815260200190815260200160002060008201518160000155602082015181600101556040820151816002015560608201518160030155608082015181600401908051906020019062006c559291906200c117565b509050506008806001815401808255809150506001900390600052602060002090600891828204019190066004027f5348475300000000000000000000000000000000000000000000000000000000909190916101000a81548163ffffffff021916908360e01c021790555062006ccb6200c0e8565b600381606001818152505080600560007f53484848000000000000000000000000000000000000000000000000000000007bffffffffffffffffffffffffffffffffffffffffffffffffffffffff1916815260200190815260200160002060008201518160000155602082015181600101556040820151816002015560608201518160030155608082015181600401908051906020019062006d6f9291906200c117565b509050506008806001815401808255809150506001900390600052602060002090600891828204019190066004027f5348484800000000000000000000000000000000000000000000000000000000909190916101000a81548163ffffffff021916908360e01c021790555062006de56200c0e8565b600381606001818152505080600560007f5348484c000000000000000000000000000000000000000000000000000000007bffffffffffffffffffffffffffffffffffffffffffffffffffffffff1916815260200190815260200160002060008201518160000155602082015181600101556040820151816002015560608201518160030155608082015181600401908051906020019062006e899291906200c117565b509050506008806001815401808255809150506001900390600052602060002090600891828204019190066004027f5348484c00000000000000000000000000000000000000000000000000000000909190916101000a81548163ffffffff021916908360e01c021790555062006eff6200c0e8565b600381606001818152505080600560007f53484c53000000000000000000000000000000000000000000000000000000007bffffffffffffffffffffffffffffffffffffffffffffffffffffffff1916815260200190815260200160002060008201518160000155602082015181600101556040820151816002015560608201518160030155608082015181600401908051906020019062006fa39291906200c117565b509050506008806001815401808255809150506001900390600052602060002090600891828204019190066004027f53484c5300000000000000000000000000000000000000000000000000000000909190916101000a81548163ffffffff021916908360e01c0217905550620070196200c0e8565b600381606001818152505080600560007f5348534f000000000000000000000000000000000000000000000000000000007bffffffffffffffffffffffffffffffffffffffffffffffffffffffff19168152602001908152602001600020600082015181600001556020820151816001015560408201518160020155606082015181600301556080820151816004019080519060200190620070bd9291906200c117565b509050506008806001815401808255809150506001900390600052602060002090600891828204019190066004027f5348534f00000000000000000000000000000000000000000000000000000000909190916101000a81548163ffffffff021916908360e01c0217905550620071336200c0e8565b600381606001818152505080600560007f53485350000000000000000000000000000000000000000000000000000000007bffffffffffffffffffffffffffffffffffffffffffffffffffffffff19168152602001908152602001600020600082015181600001556020820151816001015560408201518160020155606082015181600301556080820151816004019080519060200190620071d79291906200c117565b509050506008806001815401808255809150506001900390600052602060002090600891828204019190066004027f5348535000000000000000000000000000000000000000000000000000000000909190916101000a81548163ffffffff021916908360e01c02179055506200724d6200c0e8565b600381606001818152505080600560007f53485453000000000000000000000000000000000000000000000000000000007bffffffffffffffffffffffffffffffffffffffffffffffffffffffff19168152602001908152602001600020600082015181600001556020820151816001015560408201518160020155606082015181600301556080820151816004019080519060200190620072f19291906200c117565b509050506008806001815401808255809150506001900390600052602060002090600891828204019190066004027f5348545300000000000000000000000000000000000000000000000000000000909190916101000a81548163ffffffff021916908360e01c021790555050505050505050505050505050505050505050505050505050505050505050505050506200738a6200c0e8565b600381606001818152505080600560007f534e4753000000000000000000000000000000000000000000000000000000007bffffffffffffffffffffffffffffffffffffffffffffffffffffffff191681526020019081526020016000206000820151816000015560208201518160010155604082015181600201556060820151816003015560808201518160040190805190602001906200742e9291906200c117565b509050506008806001815401808255809150506001900390600052602060002090600891828204019190066004027f534e475300000000000000000000000000000000000000000000000000000000909190916101000a81548163ffffffff021916908360e01c0217905550620074a46200c0e8565b600381606001818152505080600560007f534e4848000000000000000000000000000000000000000000000000000000007bffffffffffffffffffffffffffffffffffffffffffffffffffffffff19168152602001908152602001600020600082015181600001556020820151816001015560408201518160020155606082015181600301556080820151816004019080519060200190620075489291906200c117565b509050506008806001815401808255809150506001900390600052602060002090600891828204019190066004027f534e484800000000000000000000000000000000000000000000000000000000909190916101000a81548163ffffffff021916908360e01c0217905550620075be6200c0e8565b600381606001818152505080600560007f534e484c000000000000000000000000000000000000000000000000000000007bffffffffffffffffffffffffffffffffffffffffffffffffffffffff19168152602001908152602001600020600082015181600001556020820151816001015560408201518160020155606082015181600301556080820151816004019080519060200190620076629291906200c117565b509050506008806001815401808255809150506001900390600052602060002090600891828204019190066004027f534e484c00000000000000000000000000000000000000000000000000000000909190916101000a81548163ffffffff021916908360e01c0217905550620076d86200c0e8565b600381606001818152505080600560007f534e4c53000000000000000000000000000000000000000000000000000000007bffffffffffffffffffffffffffffffffffffffffffffffffffffffff191681526020019081526020016000206000820151816000015560208201518160010155604082015181600201556060820151816003015560808201518160040190805190602001906200777c9291906200c117565b509050506008806001815401808255809150506001900390600052602060002090600891828204019190066004027f534e4c5300000000000000000000000000000000000000000000000000000000909190916101000a81548163ffffffff021916908360e01c0217905550620077f26200c0e8565b600381606001818152505080600560007f534e534f000000000000000000000000000000000000000000000000000000007bffffffffffffffffffffffffffffffffffffffffffffffffffffffff19168152602001908152602001600020600082015181600001556020820151816001015560408201518160020155606082015181600301556080820151816004019080519060200190620078969291906200c117565b509050506008806001815401808255809150506001900390600052602060002090600891828204019190066004027f534e534f00000000000000000000000000000000000000000000000000000000909190916101000a81548163ffffffff021916908360e01c02179055506200790c6200c0e8565b600381606001818152505080600560007f534e5350000000000000000000000000000000000000000000000000000000007bffffffffffffffffffffffffffffffffffffffffffffffffffffffff19168152602001908152602001600020600082015181600001556020820151816001015560408201518160020155606082015181600301556080820151816004019080519060200190620079b09291906200c117565b509050506008806001815401808255809150506001900390600052602060002090600891828204019190066004027f534e535000000000000000000000000000000000000000000000000000000000909190916101000a81548163ffffffff021916908360e01c021790555062007a266200c0e8565b600381606001818152505080600560007f534e5453000000000000000000000000000000000000000000000000000000007bffffffffffffffffffffffffffffffffffffffffffffffffffffffff1916815260200190815260200160002060008201518160000155602082015181600101556040820151816002015560608201518160030155608082015181600401908051906020019062007aca9291906200c117565b509050506008806001815401808255809150506001900390600052602060002090600891828204019190066004027f534e545300000000000000000000000000000000000000000000000000000000909190916101000a81548163ffffffff021916908360e01c021790555062007b406200c0e8565b600381606001818152505080600560007f544d4753000000000000000000000000000000000000000000000000000000007bffffffffffffffffffffffffffffffffffffffffffffffffffffffff1916815260200190815260200160002060008201518160000155602082015181600101556040820151816002015560608201518160030155608082015181600401908051906020019062007be49291906200c117565b509050506008806001815401808255809150506001900390600052602060002090600891828204019190066004027f544d475300000000000000000000000000000000000000000000000000000000909190916101000a81548163ffffffff021916908360e01c021790555062007c5a6200c0e8565b600381606001818152505080600560007f544d4848000000000000000000000000000000000000000000000000000000007bffffffffffffffffffffffffffffffffffffffffffffffffffffffff1916815260200190815260200160002060008201518160000155602082015181600101556040820151816002015560608201518160030155608082015181600401908051906020019062007cfe9291906200c117565b509050506008806001815401808255809150506001900390600052602060002090600891828204019190066004027f544d484800000000000000000000000000000000000000000000000000000000909190916101000a81548163ffffffff021916908360e01c021790555062007d746200c0e8565b600381606001818152505080600560007f544d484c000000000000000000000000000000000000000000000000000000007bffffffffffffffffffffffffffffffffffffffffffffffffffffffff1916815260200190815260200160002060008201518160000155602082015181600101556040820151816002015560608201518160030155608082015181600401908051906020019062007e189291906200c117565b509050506008806001815401808255809150506001900390600052602060002090600891828204019190066004027f544d484c00000000000000000000000000000000000000000000000000000000909190916101000a81548163ffffffff021916908360e01c021790555062007e8e6200c0e8565b600381606001818152505080600560007f544d4c53000000000000000000000000000000000000000000000000000000007bffffffffffffffffffffffffffffffffffffffffffffffffffffffff1916815260200190815260200160002060008201518160000155602082015181600101556040820151816002015560608201518160030155608082015181600401908051906020019062007f329291906200c117565b509050506008806001815401808255809150506001900390600052602060002090600891828204019190066004027f544d4c5300000000000000000000000000000000000000000000000000000000909190916101000a81548163ffffffff021916908360e01c021790555062007fa86200c0e8565b600381606001818152505080600560007f544d534f000000000000000000000000000000000000000000000000000000007bffffffffffffffffffffffffffffffffffffffffffffffffffffffff191681526020019081526020016000206000820151816000015560208201518160010155604082015181600201556060820151816003015560808201518160040190805190602001906200804c9291906200c117565b509050506008806001815401808255809150506001900390600052602060002090600891828204019190066004027f544d534f00000000000000000000000000000000000000000000000000000000909190916101000a81548163ffffffff021916908360e01c0217905550620080c26200c0e8565b600381606001818152505080600560007f544d5350000000000000000000000000000000000000000000000000000000007bffffffffffffffffffffffffffffffffffffffffffffffffffffffff19168152602001908152602001600020600082015181600001556020820151816001015560408201518160020155606082015181600301556080820151816004019080519060200190620081669291906200c117565b509050506008806001815401808255809150506001900390600052602060002090600891828204019190066004027f544d535000000000000000000000000000000000000000000000000000000000909190916101000a81548163ffffffff021916908360e01c0217905550620081dc6200c0e8565b600381606001818152505080600560007f544d5453000000000000000000000000000000000000000000000000000000007bffffffffffffffffffffffffffffffffffffffffffffffffffffffff19168152602001908152602001600020600082015181600001556020820151816001015560408201518160020155606082015181600301556080820151816004019080519060200190620082809291906200c117565b509050506008806001815401808255809150506001900390600052602060002090600891828204019190066004027f544d545300000000000000000000000000000000000000000000000000000000909190916101000a81548163ffffffff021916908360e01c0217905550620082f66200c0e8565b600381606001818152505080600560007f54504753000000000000000000000000000000000000000000000000000000007bffffffffffffffffffffffffffffffffffffffffffffffffffffffff191681526020019081526020016000206000820151816000015560208201518160010155604082015181600201556060820151816003015560808201518160040190805190602001906200839a9291906200c117565b509050506008806001815401808255809150506001900390600052602060002090600891828204019190066004027f5450475300000000000000000000000000000000000000000000000000000000909190916101000a81548163ffffffff021916908360e01c0217905550620084106200c0e8565b600381606001818152505080600560007f54504848000000000000000000000000000000000000000000000000000000007bffffffffffffffffffffffffffffffffffffffffffffffffffffffff19168152602001908152602001600020600082015181600001556020820151816001015560408201518160020155606082015181600301556080820151816004019080519060200190620084b49291906200c117565b509050506008806001815401808255809150506001900390600052602060002090600891828204019190066004027f5450484800000000000000000000000000000000000000000000000000000000909190916101000a81548163ffffffff021916908360e01c02179055506200852a6200c0e8565b600381606001818152505080600560007f5450484c000000000000000000000000000000000000000000000000000000007bffffffffffffffffffffffffffffffffffffffffffffffffffffffff19168152602001908152602001600020600082015181600001556020820151816001015560408201518160020155606082015181600301556080820151816004019080519060200190620085ce9291906200c117565b509050506008806001815401808255809150506001900390600052602060002090600891828204019190066004027f5450484c00000000000000000000000000000000000000000000000000000000909190916101000a81548163ffffffff021916908360e01c0217905550620086446200c0e8565b600381606001818152505080600560007f54504c53000000000000000000000000000000000000000000000000000000007bffffffffffffffffffffffffffffffffffffffffffffffffffffffff19168152602001908152602001600020600082015181600001556020820151816001015560408201518160020155606082015181600301556080820151816004019080519060200190620086e89291906200c117565b509050506008806001815401808255809150506001900390600052602060002090600891828204019190066004027f54504c5300000000000000000000000000000000000000000000000000000000909190916101000a81548163ffffffff021916908360e01c02179055506200875e6200c0e8565b600381606001818152505080600560007f5450534f000000000000000000000000000000000000000000000000000000007bffffffffffffffffffffffffffffffffffffffffffffffffffffffff19168152602001908152602001600020600082015181600001556020820151816001015560408201518160020155606082015181600301556080820151816004019080519060200190620088029291906200c117565b509050506008806001815401808255809150506001900390600052602060002090600891828204019190066004027f5450534f00000000000000000000000000000000000000000000000000000000909190916101000a81548163ffffffff021916908360e01c0217905550620088786200c0e8565b600381606001818152505080600560007f54505350000000000000000000000000000000000000000000000000000000007bffffffffffffffffffffffffffffffffffffffffffffffffffffffff191681526020019081526020016000206000820151816000015560208201518160010155604082015181600201556060820151816003015560808201518160040190805190602001906200891c9291906200c117565b509050506008806001815401808255809150506001900390600052602060002090600891828204019190066004027f5450535000000000000000000000000000000000000000000000000000000000909190916101000a81548163ffffffff021916908360e01c0217905550620089926200c0e8565b600381606001818152505080600560007f54505453000000000000000000000000000000000000000000000000000000007bffffffffffffffffffffffffffffffffffffffffffffffffffffffff1916815260200190815260200160002060008201518160000155602082015181600101556040820151816002015560608201518160030155608082015181600401908051906020019062008a369291906200c117565b509050506008806001815401808255809150506001900390600052602060002090600891828204019190066004027f5450545300000000000000000000000000000000000000000000000000000000909190916101000a81548163ffffffff021916908360e01c021790555062008aac6200c0e8565b600381606001818152505080600560007f54554753000000000000000000000000000000000000000000000000000000007bffffffffffffffffffffffffffffffffffffffffffffffffffffffff1916815260200190815260200160002060008201518160000155602082015181600101556040820151816002015560608201518160030155608082015181600401908051906020019062008b509291906200c117565b509050506008806001815401808255809150506001900390600052602060002090600891828204019190066004027f5455475300000000000000000000000000000000000000000000000000000000909190916101000a81548163ffffffff021916908360e01c021790555062008bc66200c0e8565b600381606001818152505080600560007f54554848000000000000000000000000000000000000000000000000000000007bffffffffffffffffffffffffffffffffffffffffffffffffffffffff1916815260200190815260200160002060008201518160000155602082015181600101556040820151816002015560608201518160030155608082015181600401908051906020019062008c6a9291906200c117565b509050506008806001815401808255809150506001900390600052602060002090600891828204019190066004027f5455484800000000000000000000000000000000000000000000000000000000909190916101000a81548163ffffffff021916908360e01c021790555062008ce06200c0e8565b600381606001818152505080600560007f5455484c000000000000000000000000000000000000000000000000000000007bffffffffffffffffffffffffffffffffffffffffffffffffffffffff1916815260200190815260200160002060008201518160000155602082015181600101556040820151816002015560608201518160030155608082015181600401908051906020019062008d849291906200c117565b509050506008806001815401808255809150506001900390600052602060002090600891828204019190066004027f5455484c00000000000000000000000000000000000000000000000000000000909190916101000a81548163ffffffff021916908360e01c021790555062008dfa6200c0e8565b600381606001818152505080600560007f54554c53000000000000000000000000000000000000000000000000000000007bffffffffffffffffffffffffffffffffffffffffffffffffffffffff1916815260200190815260200160002060008201518160000155602082015181600101556040820151816002015560608201518160030155608082015181600401908051906020019062008e9e9291906200c117565b509050506008806001815401808255809150506001900390600052602060002090600891828204019190066004027f54554c5300000000000000000000000000000000000000000000000000000000909190916101000a81548163ffffffff021916908360e01c021790555062008f146200c0e8565b600381606001818152505080600560007f5455534f000000000000000000000000000000000000000000000000000000007bffffffffffffffffffffffffffffffffffffffffffffffffffffffff1916815260200190815260200160002060008201518160000155602082015181600101556040820151816002015560608201518160030155608082015181600401908051906020019062008fb89291906200c117565b509050506008806001815401808255809150506001900390600052602060002090600891828204019190066004027f5455534f00000000000000000000000000000000000000000000000000000000909190916101000a81548163ffffffff021916908360e01c02179055506200902e6200c0e8565b600381606001818152505080600560007f54555350000000000000000000000000000000000000000000000000000000007bffffffffffffffffffffffffffffffffffffffffffffffffffffffff19168152602001908152602001600020600082015181600001556020820151816001015560408201518160020155606082015181600301556080820151816004019080519060200190620090d29291906200c117565b509050506008806001815401808255809150506001900390600052602060002090600891828204019190066004027f5455535000000000000000000000000000000000000000000000000000000000909190916101000a81548163ffffffff021916908360e01c0217905550620091486200c0e8565b600381606001818152505080600560007f54555453000000000000000000000000000000000000000000000000000000007bffffffffffffffffffffffffffffffffffffffffffffffffffffffff19168152602001908152602001600020600082015181600001556020820151816001015560408201518160020155606082015181600301556080820151816004019080519060200190620091ec9291906200c117565b509050506008806001815401808255809150506001900390600052602060002090600891828204019190066004027f5455545300000000000000000000000000000000000000000000000000000000909190916101000a81548163ffffffff021916908360e01c0217905550505050505050505050505050505050505050505050505050505050506200927e6200c0e8565b600381606001818152505080600460007f41410000000000000000000000000000000000000000000000000000000000007dffffffffffffffffffffffffffffffffffffffffffffffffffffffffffff19168152602001908152602001600020600082015181600001556020820151816001015560408201518160020155606082015181600301556080820151816004019080519060200190620093249291906200c117565b509050506007806001815401808255809150506001900390600052602060002090601091828204019190066002027f4141000000000000000000000000000000000000000000000000000000000000909190916101000a81548161ffff021916908360f01c0217905550620093986200c0e8565b600381606001818152505080600460007f52410000000000000000000000000000000000000000000000000000000000007dffffffffffffffffffffffffffffffffffffffffffffffffffffffffffff191681526020019081526020016000206000820151816000015560208201518160010155604082015181600201556060820151816003015560808201518160040190805190602001906200943e9291906200c117565b509050506007806001815401808255809150506001900390600052602060002090601091828204019190066002027f5241000000000000000000000000000000000000000000000000000000000000909190916101000a81548161ffff021916908360f01c0217905550620094b26200c0e8565b600381606001818152505080600460007f434f0000000000000000000000000000000000000000000000000000000000007dffffffffffffffffffffffffffffffffffffffffffffffffffffffffffff19168152602001908152602001600020600082015181600001556020820151816001015560408201518160020155606082015181600301556080820151816004019080519060200190620095589291906200c117565b509050506007806001815401808255809150506001900390600052602060002090601091828204019190066002027f434f000000000000000000000000000000000000000000000000000000000000909190916101000a81548161ffff021916908360f01c0217905550620095cc6200c0e8565b600381606001818152505080600460007f43410000000000000000000000000000000000000000000000000000000000007dffffffffffffffffffffffffffffffffffffffffffffffffffffffffffff19168152602001908152602001600020600082015181600001556020820151816001015560408201518160020155606082015181600301556080820151816004019080519060200190620096729291906200c117565b509050506007806001815401808255809150506001900390600052602060002090601091828204019190066002027f4341000000000000000000000000000000000000000000000000000000000000909190916101000a81548161ffff021916908360f01c0217905550620096e66200c0e8565b600381606001818152505080600460007f434c0000000000000000000000000000000000000000000000000000000000007dffffffffffffffffffffffffffffffffffffffffffffffffffffffffffff191681526020019081526020016000206000820151816000015560208201518160010155604082015181600201556060820151816003015560808201518160040190805190602001906200978c9291906200c117565b509050506007806001815401808255809150506001900390600052602060002090601091828204019190066002027f434c000000000000000000000000000000000000000000000000000000000000909190916101000a81548161ffff021916908360f01c0217905550620098006200c0e8565b600381606001818152505080600460007f49410000000000000000000000000000000000000000000000000000000000007dffffffffffffffffffffffffffffffffffffffffffffffffffffffffffff19168152602001908152602001600020600082015181600001556020820151816001015560408201518160020155606082015181600301556080820151816004019080519060200190620098a69291906200c117565b509050506007806001815401808255809150506001900390600052602060002090601091828204019190066002027f4941000000000000000000000000000000000000000000000000000000000000909190916101000a81548161ffff021916908360f01c02179055506200991a6200c0e8565b600381606001818152505080600460007f53500000000000000000000000000000000000000000000000000000000000007dffffffffffffffffffffffffffffffffffffffffffffffffffffffffffff19168152602001908152602001600020600082015181600001556020820151816001015560408201518160020155606082015181600301556080820151816004019080519060200190620099c09291906200c117565b509050506007806001815401808255809150506001900390600052602060002090601091828204019190066002027f5350000000000000000000000000000000000000000000000000000000000000909190916101000a81548161ffff021916908360f01c021790555062009a346200c0e8565b600381606001818152505080600460007f48410000000000000000000000000000000000000000000000000000000000007dffffffffffffffffffffffffffffffffffffffffffffffffffffffffffff1916815260200190815260200160002060008201518160000155602082015181600101556040820151816002015560608201518160030155608082015181600401908051906020019062009ada9291906200c117565b509050506007806001815401808255809150506001900390600052602060002090601091828204019190066002027f4841000000000000000000000000000000000000000000000000000000000000909190916101000a81548161ffff021916908360f01c021790555062009b4e6200c0e8565b600381606001818152505080600460007f47530000000000000000000000000000000000000000000000000000000000007dffffffffffffffffffffffffffffffffffffffffffffffffffffffffffff1916815260200190815260200160002060008201518160000155602082015181600101556040820151816002015560608201518160030155608082015181600401908051906020019062009bf49291906200c117565b509050506007806001815401808255809150506001900390600052602060002090601091828204019190066002027f4753000000000000000000000000000000000000000000000000000000000000909190916101000a81548161ffff021916908360f01c021790555062009c686200c0e8565b600381606001818152505080600560007f41454254000000000000000000000000000000000000000000000000000000007bffffffffffffffffffffffffffffffffffffffffffffffffffffffff1916815260200190815260200160002060008201518160000155602082015181600101556040820151816002015560608201518160030155608082015181600401908051906020019062009d0c9291906200c117565b509050506009806001815401808255809150506001900390600052602060002090600891828204019190066004027f4145425400000000000000000000000000000000000000000000000000000000909190916101000a81548163ffffffff021916908360e01c021790555062009d826200c0e8565b600381606001818152505080600560007f41455044000000000000000000000000000000000000000000000000000000007bffffffffffffffffffffffffffffffffffffffffffffffffffffffff1916815260200190815260200160002060008201518160000155602082015181600101556040820151816002015560608201518160030155608082015181600401908051906020019062009e269291906200c117565b509050506009806001815401808255809150506001900390600052602060002090600891828204019190066004027f4145504400000000000000000000000000000000000000000000000000000000909190916101000a81548163ffffffff021916908360e01c021790555062009e9c6200c0e8565b600381606001818152505080600560007f42544254000000000000000000000000000000000000000000000000000000007bffffffffffffffffffffffffffffffffffffffffffffffffffffffff1916815260200190815260200160002060008201518160000155602082015181600101556040820151816002015560608201518160030155608082015181600401908051906020019062009f409291906200c117565b509050506009806001815401808255809150506001900390600052602060002090600891828204019190066004027f4254425400000000000000000000000000000000000000000000000000000000909190916101000a81548163ffffffff021916908360e01c021790555062009fb66200c0e8565b600381606001818152505080600560007f42545044000000000000000000000000000000000000000000000000000000007bffffffffffffffffffffffffffffffffffffffffffffffffffffffff191681526020019081526020016000206000820151816000015560208201518160010155604082015181600201556060820151816003015560808201518160040190805190602001906200a05a9291906200c117565b509050506009806001815401808255809150506001900390600052602060002090600891828204019190066004027f4254504400000000000000000000000000000000000000000000000000000000909190916101000a81548163ffffffff021916908360e01c02179055506200a0d06200c0e8565b600381606001818152505080600560007f43454254000000000000000000000000000000000000000000000000000000007bffffffffffffffffffffffffffffffffffffffffffffffffffffffff191681526020019081526020016000206000820151816000015560208201518160010155604082015181600201556060820151816003015560808201518160040190805190602001906200a1749291906200c117565b509050506009806001815401808255809150506001900390600052602060002090600891828204019190066004027f4345425400000000000000000000000000000000000000000000000000000000909190916101000a81548163ffffffff021916908360e01c02179055506200a1ea6200c0e8565b600381606001818152505080600560007f43455044000000000000000000000000000000000000000000000000000000007bffffffffffffffffffffffffffffffffffffffffffffffffffffffff191681526020019081526020016000206000820151816000015560208201518160010155604082015181600201556060820151816003015560808201518160040190805190602001906200a28e9291906200c117565b509050506009806001815401808255809150506001900390600052602060002090600891828204019190066004027f4345504400000000000000000000000000000000000000000000000000000000909190916101000a81548163ffffffff021916908360e01c02179055506200a3046200c0e8565b600381606001818152505080600560007f43484254000000000000000000000000000000000000000000000000000000007bffffffffffffffffffffffffffffffffffffffffffffffffffffffff191681526020019081526020016000206000820151816000015560208201518160010155604082015181600201556060820151816003015560808201518160040190805190602001906200a3a89291906200c117565b509050506009806001815401808255809150506001900390600052602060002090600891828204019190066004027f4348425400000000000000000000000000000000000000000000000000000000909190916101000a81548163ffffffff021916908360e01c02179055506200a41e6200c0e8565b600381606001818152505080600560007f43485044000000000000000000000000000000000000000000000000000000007bffffffffffffffffffffffffffffffffffffffffffffffffffffffff191681526020019081526020016000206000820151816000015560208201518160010155604082015181600201556060820151816003015560808201518160040190805190602001906200a4c29291906200c117565b509050506009806001815401808255809150506001900390600052602060002090600891828204019190066004027f4348504400000000000000000000000000000000000000000000000000000000909190916101000a81548163ffffffff021916908360e01c02179055506200a5386200c0e8565b600381606001818152505080600560007f43534254000000000000000000000000000000000000000000000000000000007bffffffffffffffffffffffffffffffffffffffffffffffffffffffff191681526020019081526020016000206000820151816000015560208201518160010155604082015181600201556060820151816003015560808201518160040190805190602001906200a5dc9291906200c117565b509050506009806001815401808255809150506001900390600052602060002090600891828204019190066004027f4353425400000000000000000000000000000000000000000000000000000000909190916101000a81548163ffffffff021916908360e01c02179055506200a6526200c0e8565b600381606001818152505080600560007f43535044000000000000000000000000000000000000000000000000000000007bffffffffffffffffffffffffffffffffffffffffffffffffffffffff191681526020019081526020016000206000820151816000015560208201518160010155604082015181600201556060820151816003015560808201518160040190805190602001906200a6f69291906200c117565b509050506009806001815401808255809150506001900390600052602060002090600891828204019190066004027f4353504400000000000000000000000000000000000000000000000000000000909190916101000a81548163ffffffff021916908360e01c02179055506200a76c6200c0e8565b600381606001818152505080600560007f43594254000000000000000000000000000000000000000000000000000000007bffffffffffffffffffffffffffffffffffffffffffffffffffffffff191681526020019081526020016000206000820151816000015560208201518160010155604082015181600201556060820151816003015560808201518160040190805190602001906200a8109291906200c117565b509050506009806001815401808255809150506001900390600052602060002090600891828204019190066004027f4359425400000000000000000000000000000000000000000000000000000000909190916101000a81548163ffffffff021916908360e01c02179055506200a8866200c0e8565b600381606001818152505080600560007f43595044000000000000000000000000000000000000000000000000000000007bffffffffffffffffffffffffffffffffffffffffffffffffffffffff191681526020019081526020016000206000820151816000015560208201518160010155604082015181600201556060820151816003015560808201518160040190805190602001906200a92a9291906200c117565b509050506009806001815401808255809150506001900390600052602060002090600891828204019190066004027f4359504400000000000000000000000000000000000000000000000000000000909190916101000a81548163ffffffff021916908360e01c02179055506200a9a06200c0e8565b600381606001818152505080600560007f45444254000000000000000000000000000000000000000000000000000000007bffffffffffffffffffffffffffffffffffffffffffffffffffffffff191681526020019081526020016000206000820151816000015560208201518160010155604082015181600201556060820151816003015560808201518160040190805190602001906200aa449291906200c117565b509050506009806001815401808255809150506001900390600052602060002090600891828204019190066004027f4544425400000000000000000000000000000000000000000000000000000000909190916101000a81548163ffffffff021916908360e01c02179055506200aaba6200c0e8565b600381606001818152505080600560007f45445044000000000000000000000000000000000000000000000000000000007bffffffffffffffffffffffffffffffffffffffffffffffffffffffff191681526020019081526020016000206000820151816000015560208201518160010155604082015181600201556060820151816003015560808201518160040190805190602001906200ab5e9291906200c117565b509050506009806001815401808255809150506001900390600052602060002090600891828204019190066004027f4544504400000000000000000000000000000000000000000000000000000000909190916101000a81548163ffffffff021916908360e01c02179055506200abd46200c0e8565b600381606001818152505080600560007f45454254000000000000000000000000000000000000000000000000000000007bffffffffffffffffffffffffffffffffffffffffffffffffffffffff191681526020019081526020016000206000820151816000015560208201518160010155604082015181600201556060820151816003015560808201518160040190805190602001906200ac789291906200c117565b509050506009806001815401808255809150506001900390600052602060002090600891828204019190066004027f4545425400000000000000000000000000000000000000000000000000000000909190916101000a81548163ffffffff021916908360e01c02179055506200acee6200c0e8565b600381606001818152505080600560007f45455044000000000000000000000000000000000000000000000000000000007bffffffffffffffffffffffffffffffffffffffffffffffffffffffff191681526020019081526020016000206000820151816000015560208201518160010155604082015181600201556060820151816003015560808201518160040190805190602001906200ad929291906200c117565b509050506009806001815401808255809150506001900390600052602060002090600891828204019190066004027f4545504400000000000000000000000000000000000000000000000000000000909190916101000a81548163ffffffff021916908360e01c02179055506200ae086200c0e8565b600381606001818152505080600560007f45504254000000000000000000000000000000000000000000000000000000007bffffffffffffffffffffffffffffffffffffffffffffffffffffffff191681526020019081526020016000206000820151816000015560208201518160010155604082015181600201556060820151816003015560808201518160040190805190602001906200aeac9291906200c117565b509050506009806001815401808255809150506001900390600052602060002090600891828204019190066004027f4550425400000000000000000000000000000000000000000000000000000000909190916101000a81548163ffffffff021916908360e01c02179055506200af226200c0e8565b600381606001818152505080600560007f48534254000000000000000000000000000000000000000000000000000000007bffffffffffffffffffffffffffffffffffffffffffffffffffffffff191681526020019081526020016000206000820151816000015560208201518160010155604082015181600201556060820151816003015560808201518160040190805190602001906200afc69291906200c117565b509050506009806001815401808255809150506001900390600052602060002090600891828204019190066004027f4853425400000000000000000000000000000000000000000000000000000000909190916101000a81548163ffffffff021916908360e01c02179055506200b03c6200c0e8565b600381606001818152505080600560007f48535044000000000000000000000000000000000000000000000000000000007bffffffffffffffffffffffffffffffffffffffffffffffffffffffff191681526020019081526020016000206000820151816000015560208201518160010155604082015181600201556060820151816003015560808201518160040190805190602001906200b0e09291906200c117565b509050506009806001815401808255809150506001900390600052602060002090600891828204019190066004027f4853504400000000000000000000000000000000000000000000000000000000909190916101000a81548163ffffffff021916908360e01c02179055506200b1566200c0e8565b600381606001818152505080600560007f4d534254000000000000000000000000000000000000000000000000000000007bffffffffffffffffffffffffffffffffffffffffffffffffffffffff191681526020019081526020016000206000820151816000015560208201518160010155604082015181600201556060820151816003015560808201518160040190805190602001906200b1fa9291906200c117565b509050506009806001815401808255809150506001900390600052602060002090600891828204019190066004027f4d53425400000000000000000000000000000000000000000000000000000000909190916101000a81548163ffffffff021916908360e01c02179055506200b2706200c0e8565b600381606001818152505080600560007f4d535044000000000000000000000000000000000000000000000000000000007bffffffffffffffffffffffffffffffffffffffffffffffffffffffff191681526020019081526020016000206000820151816000015560208201518160010155604082015181600201556060820151816003015560808201518160040190805190602001906200b3149291906200c117565b509050506009806001815401808255809150506001900390600052602060002090600891828204019190066004027f4d53504400000000000000000000000000000000000000000000000000000000909190916101000a81548163ffffffff021916908360e01c02179055506200b38a6200c0e8565b600381606001818152505080600560007f4d414254000000000000000000000000000000000000000000000000000000007bffffffffffffffffffffffffffffffffffffffffffffffffffffffff191681526020019081526020016000206000820151816000015560208201518160010155604082015181600201556060820151816003015560808201518160040190805190602001906200b42e9291906200c117565b509050506009806001815401808255809150506001900390600052602060002090600891828204019190066004027f4d41425400000000000000000000000000000000000000000000000000000000909190916101000a81548163ffffffff021916908360e01c02179055506200b4a46200c0e8565b600381606001818152505080600560007f4d415044000000000000000000000000000000000000000000000000000000007bffffffffffffffffffffffffffffffffffffffffffffffffffffffff191681526020019081526020016000206000820151816000015560208201518160010155604082015181600201556060820151816003015560808201518160040190805190602001906200b5489291906200c117565b509050506009806001815401808255809150506001900390600052602060002090600891828204019190066004027f4d41504400000000000000000000000000000000000000000000000000000000909190916101000a81548163ffffffff021916908360e01c02179055506200b5be6200c0e8565b600381606001818152505080600560007f4d454254000000000000000000000000000000000000000000000000000000007bffffffffffffffffffffffffffffffffffffffffffffffffffffffff191681526020019081526020016000206000820151816000015560208201518160010155604082015181600201556060820151816003015560808201518160040190805190602001906200b6629291906200c117565b509050506009806001815401808255809150506001900390600052602060002090600891828204019190066004027f4d45425400000000000000000000000000000000000000000000000000000000909190916101000a81548163ffffffff021916908360e01c02179055506200b6d86200c0e8565b600381606001818152505080600560007f4d455044000000000000000000000000000000000000000000000000000000007bffffffffffffffffffffffffffffffffffffffffffffffffffffffff191681526020019081526020016000206000820151816000015560208201518160010155604082015181600201556060820151816003015560808201518160040190805190602001906200b77c9291906200c117565b509050506009806001815401808255809150506001900390600052602060002090600891828204019190066004027f4d45504400000000000000000000000000000000000000000000000000000000909190916101000a81548163ffffffff021916908360e01c02179055506200b7f26200c0e8565b600381606001818152505080600560007f4d4d4254000000000000000000000000000000000000000000000000000000007bffffffffffffffffffffffffffffffffffffffffffffffffffffffff191681526020019081526020016000206000820151816000015560208201518160010155604082015181600201556060820151816003015560808201518160040190805190602001906200b8969291906200c117565b509050506009806001815401808255809150506001900390600052602060002090600891828204019190066004027f4d4d425400000000000000000000000000000000000000000000000000000000909190916101000a81548163ffffffff021916908360e01c02179055506200b90c6200c0e8565b600381606001818152505080600560007f4d4d5044000000000000000000000000000000000000000000000000000000007bffffffffffffffffffffffffffffffffffffffffffffffffffffffff191681526020019081526020016000206000820151816000015560208201518160010155604082015181600201556060820151816003015560808201518160040190805190602001906200b9b09291906200c117565b509050506009806001815401808255809150506001900390600052602060002090600891828204019190066004027f4d4d504400000000000000000000000000000000000000000000000000000000909190916101000a81548163ffffffff021916908360e01c02179055506200ba266200c0e8565b600381606001818152505080600560007f4f454254000000000000000000000000000000000000000000000000000000007bffffffffffffffffffffffffffffffffffffffffffffffffffffffff191681526020019081526020016000206000820151816000015560208201518160010155604082015181600201556060820151816003015560808201518160040190805190602001906200baca9291906200c117565b509050506009806001815401808255809150506001900390600052602060002090600891828204019190066004027f4f45425400000000000000000000000000000000000000000000000000000000909190916101000a81548163ffffffff021916908360e01c02179055506200bb406200c0e8565b600381606001818152505080600560007f4f455044000000000000000000000000000000000000000000000000000000007bffffffffffffffffffffffffffffffffffffffffffffffffffffffff191681526020019081526020016000206000820151816000015560208201518160010155604082015181600201556060820151816003015560808201518160040190805190602001906200bbe49291906200c117565b509050506009806001815401808255809150506001900390600052602060002090600891828204019190066004027f4f45504400000000000000000000000000000000000000000000000000000000909190916101000a81548163ffffffff021916908360e01c02179055506200bc5a6200c0e8565b600381606001818152505080600560007f50484254000000000000000000000000000000000000000000000000000000007bffffffffffffffffffffffffffffffffffffffffffffffffffffffff191681526020019081526020016000206000820151816000015560208201518160010155604082015181600201556060820151816003015560808201518160040190805190602001906200bcfe9291906200c117565b509050506009806001815401808255809150506001900390600052602060002090600891828204019190066004027f5048425400000000000000000000000000000000000000000000000000000000909190916101000a81548163ffffffff021916908360e01c02179055506200bd746200c0e8565b600381606001818152505080600560007f50485044000000000000000000000000000000000000000000000000000000007bffffffffffffffffffffffffffffffffffffffffffffffffffffffff191681526020019081526020016000206000820151816000015560208201518160010155604082015181600201556060820151816003015560808201518160040190805190602001906200be189291906200c117565b509050506009806001815401808255809150506001900390600052602060002090600891828204019190066004027f5048504400000000000000000000000000000000000000000000000000000000909190916101000a81548163ffffffff021916908360e01c02179055506200be8e6200c0e8565b600381606001818152505080600560007f414d5044000000000000000000000000000000000000000000000000000000007bffffffffffffffffffffffffffffffffffffffffffffffffffffffff191681526020019081526020016000206000820151816000015560208201518160010155604082015181600201556060820151816003015560808201518160040190805190602001906200bf329291906200c117565b509050506009806001815401808255809150506001900390600052602060002090600891828204019190066004027f414d504400000000000000000000000000000000000000000000000000000000909190916101000a81548163ffffffff021916908360e01c02179055506200bfa86200c0e8565b600381606001818152505080600560007f4d544d54000000000000000000000000000000000000000000000000000000007bffffffffffffffffffffffffffffffffffffffffffffffffffffffff191681526020019081526020016000206000820151816000015560208201518160010155604082015181600201556060820151816003015560808201518160040190805190602001906200c04c9291906200c117565b509050506009806001815401808255809150506001900390600052602060002090600891828204019190066004027f4d544d5400000000000000000000000000000000000000000000000000000000909190916101000a81548163ffffffff021916908360e01c02179055505050505050505050505050505050505050505050505050505050505050505050505050505050505050506200c188565b6040518060a0016040528060008152602001600081526020016000815260200160008152602001606081525090565b8280548282559060005260206000209081019282156200c156579160200282015b828111156200c1555782518255916020019190600101906200c138565b5b5090506200c16591906200c169565b5090565b5b808211156200c1845760008160009055506001016200c16a565b5090565b6130dd806200c1986000396000f3fe608060405234801561001057600080fd5b50600436106101165760003560e01c806388ff499a116100a2578063be9a655511610071578063be9a6555146105ec578063d9aa1e6f1461060c578063efbe1c1c146106b0578063fa9d3515146106d0578063ff5c7d041461075957610116565b806388ff499a146104df5780639116c288146104ff5780639d95f1cc1461051f578063bc501d301461056357610116565b806362d73eb8116100e957806362d73eb8146102e0578063655fb610146102ea5780636c1450781461034d5780638607ab0e146103d857806386956ac61461047a57610116565b8063183d1f621461011b5780631988a2dd1461017a5780634eeaaecb1461021e57806359f78468146102d6575b600080fd5b6101236107bc565b6040518080602001828103825283818151815260200191508051906020019060200280838360005b8381101561016657808201518184015260208101905061014b565b505050509050019250505060405180910390f35b6101c76004803603602081101561019057600080fd5b8101908080357dffffffffffffffffffffffffffffffffffffffffffffffffffffffffffff1916906020019092919050505061090b565b6040518080602001828103825283818151815260200191508051906020019060200280838360005b8381101561020a5780820151818401526020810190506101ef565b505050509050019250505060405180910390f35b6102d46004803603602081101561023457600080fd5b810190808035906020019064010000000081111561025157600080fd5b82018360208201111561026357600080fd5b8035906020019184602083028401116401000000008311171561028557600080fd5b919080806020026020016040519081016040528093929190818152602001838360200280828437600081840152601f19601f820116905080830192505050505050509192919290505050610a7c565b005b6102de611953565b005b6102e8611ad9565b005b6103356004803603602081101561030057600080fd5b8101908080357bffffffffffffffffffffffffffffffffffffffffffffffffffffffff19169060200190929190505050611c40565b60405180821515815260200191505060405180910390f35b61039a6004803603602081101561036357600080fd5b8101908080357dffffffffffffffffffffffffffffffffffffffffffffffffffffffffffff19169060200190929190505050611d34565b6040518082600460200280838360005b838110156103c55780820151818401526020810190506103aa565b5050505090500191505060405180910390f35b610423600480360360208110156103ee57600080fd5b8101908080357bffffffffffffffffffffffffffffffffffffffffffffffffffffffff19169060200190929190505050611fdf565b6040518080602001828103825283818151815260200191508051906020019060200280838360005b8381101561046657808201518184015260208101905061044b565b505050509050019250505060405180910390f35b6104c76004803603602081101561049057600080fd5b8101908080357dffffffffffffffffffffffffffffffffffffffffffffffffffffffffffff1916906020019092919050505061214c565b60405180821515815260200191505060405180910390f35b6104e7612244565b60405180821515815260200191505060405180910390f35b61050761225b565b60405180821515815260200191505060405180910390f35b6105616004803603602081101561053557600080fd5b81019080803573ffffffffffffffffffffffffffffffffffffffff169060200190929190505050612272565b005b6105ae6004803603602081101561057957600080fd5b8101908080357bffffffffffffffffffffffffffffffffffffffffffffffffffffffff191690602001909291905050506124b8565b6040518082600460200280838360005b838110156105d95780820151818401526020810190506105be565b5050505090500191505060405180910390f35b6105f461274f565b60405180821515815260200191505060405180910390f35b6106596004803603602081101561062257600080fd5b8101908080357dffffffffffffffffffffffffffffffffffffffffffffffffffffffffffff19169060200190929190505050612762565b6040518080602001828103825283818151815260200191508051906020019060200280838360005b8381101561069c578082015181840152602081019050610681565b505050509050019250505060405180910390f35b6106b86128d1565b60405180821515815260200191505060405180910390f35b61071b600480360360208110156106e657600080fd5b8101908080357bffffffffffffffffffffffffffffffffffffffffffffffffffffffff191690602001909291905050506128e4565b6040518082600460200280838360005b8381101561074657808201518184015260208101905061072b565b5050505090500191505060405180910390f35b6107a46004803603602081101561076f57600080fd5b8101908080357bffffffffffffffffffffffffffffffffffffffffffffffffffffffff19169060200190929190505050612b7b565b60405180821515815260200191505060405180910390f35b606060008054906101000a900473ffffffffffffffffffffffffffffffffffffffff1673ffffffffffffffffffffffffffffffffffffffff163373ffffffffffffffffffffffffffffffffffffffff161461087f576040517f08c379a000000000000000000000000000000000000000000000000000000000815260040180806020018281038252600d8152602001807f4143434553535f44454e4945440000000000000000000000000000000000000081525060200191505060405180910390fd5b600180548060200260200160405190810160405280929190818152602001828054801561090157602002820191906000526020600020905b8160009054906101000a900473ffffffffffffffffffffffffffffffffffffffff1673ffffffffffffffffffffffffffffffffffffffff16815260200190600101908083116108b7575b5050505050905090565b606060008054906101000a900473ffffffffffffffffffffffffffffffffffffffff1673ffffffffffffffffffffffffffffffffffffffff163373ffffffffffffffffffffffffffffffffffffffff16146109ce576040517f08c379a000000000000000000000000000000000000000000000000000000000815260040180806020018281038252600d8152602001807f4143434553535f44454e4945440000000000000000000000000000000000000081525060200191505060405180910390fd5b60046000837dffffffffffffffffffffffffffffffffffffffffffffffffffffffffffff19167dffffffffffffffffffffffffffffffffffffffffffffffffffffffffffff19168152602001908152602001600020600401805480602002602001604051908101604052809291908181526020018280548015610a7057602002820191906000526020600020905b815481526020019060010190808311610a5c575b50505050509050919050565b60005b815181101561194f576000828281518110610a9657fe5b602002602001015190507f310000000000000000000000000000000000000000000000000000000000000060405160200180827effffffffffffffffffffffffffffffffffffffffffffffffffffffffffffff191681526001019150506040516020818303038152906040528051906020012081600060208110610b1657fe5b1a60f81b60405160200180827effffffffffffffffffffffffffffffffffffffffffffffffffffffffffffff19168152600101915050604051602081830303815290604052805190602001201415610f75576000610b9482600160208110610b7a57fe5b1a60f81b83600260208110610b8b57fe5b1a60f81b612c6f565b9050610b9f8161214c565b610c11576040517f08c379a00000000000000000000000000000000000000000000000000000000081526004018080602001828103825260148152602001807f494e56414c49445f43454e5452414c5f504f4c4c00000000000000000000000081525060200191505060405180910390fd5b7f310000000000000000000000000000000000000000000000000000000000000060405160200180827effffffffffffffffffffffffffffffffffffffffffffffffffffffffffffff191681526001019150506040516020818303038152906040528051906020012082600360208110610c8757fe5b1a60f81b60405160200180827effffffffffffffffffffffffffffffffffffffffffffffffffffffffffffff19168152600101915050604051602081830303815290604052805190602001201415610d4557600160046000837dffffffffffffffffffffffffffffffffffffffffffffffffffffffffffff19167dffffffffffffffffffffffffffffffffffffffffffffffffffffffffffff1916815260200190815260200160002060000160008282540192505081905550610f08565b7f310000000000000000000000000000000000000000000000000000000000000060405160200180827effffffffffffffffffffffffffffffffffffffffffffffffffffffffffffff191681526001019150506040516020818303038152906040528051906020012082600460208110610dbb57fe5b1a60f81b60405160200180827effffffffffffffffffffffffffffffffffffffffffffffffffffffffffffff19168152600101915050604051602081830303815290604052805190602001201415610e7957600160046000837dffffffffffffffffffffffffffffffffffffffffffffffffffffffffffff19167dffffffffffffffffffffffffffffffffffffffffffffffffffffffffffff1916815260200190815260200160002060010160008282540192505081905550610f07565b6000610e8483612c93565b905060046000837dffffffffffffffffffffffffffffffffffffffffffffffffffffffffffff19167dffffffffffffffffffffffffffffffffffffffffffffffffffffffffffff19168152602001908152602001600020600401819080600181540180825580915050600190039060005260206000200160009091909190915055505b5b600160046000837dffffffffffffffffffffffffffffffffffffffffffffffffffffffffffff19167dffffffffffffffffffffffffffffffffffffffffffffffffffffffffffff191681526020019081526020016000206002016000828254019250508190555050611941565b7f320000000000000000000000000000000000000000000000000000000000000060405160200180827effffffffffffffffffffffffffffffffffffffffffffffffffffffffffffff191681526001019150506040516020818303038152906040528051906020012081600060208110610feb57fe5b1a60f81b60405160200180827effffffffffffffffffffffffffffffffffffffffffffffffffffffffffffff1916815260010191505060405160208183030381529060405280519060200120141561145c57600061108b8260016020811061104f57fe5b1a60f81b8360026020811061106057fe5b1a60f81b8460036020811061107157fe5b1a60f81b8560046020811061108257fe5b1a60f81b612cad565b905061109681612b7b565b611108576040517f08c379a00000000000000000000000000000000000000000000000000000000081526004018080602001828103825260138152602001807f494e56414c49445f484f5354454c5f504f4c4c0000000000000000000000000081525060200191505060405180910390fd5b7f310000000000000000000000000000000000000000000000000000000000000060405160200180827effffffffffffffffffffffffffffffffffffffffffffffffffffffffffffff19168152600101915050604051602081830303815290604052805190602001208260056020811061117e57fe5b1a60f81b60405160200180827effffffffffffffffffffffffffffffffffffffffffffffffffffffffffffff1916815260010191505060405160208183030381529060405280519060200120141561123857600160056000837bffffffffffffffffffffffffffffffffffffffffffffffffffffffff19167bffffffffffffffffffffffffffffffffffffffffffffffffffffffff19168152602001908152602001600020600001600082825401925050819055506113f3565b7f310000000000000000000000000000000000000000000000000000000000000060405160200180827effffffffffffffffffffffffffffffffffffffffffffffffffffffffffffff1916815260010191505060405160208183030381529060405280519060200120826006602081106112ae57fe5b1a60f81b60405160200180827effffffffffffffffffffffffffffffffffffffffffffffffffffffffffffff1916815260010191505060405160208183030381529060405280519060200120141561136857600160056000837bffffffffffffffffffffffffffffffffffffffffffffffffffffffff19167bffffffffffffffffffffffffffffffffffffffffffffffffffffffff19168152602001908152602001600020600101600082825401925050819055506113f2565b600061137383612cf4565b905060056000837bffffffffffffffffffffffffffffffffffffffffffffffffffffffff19167bffffffffffffffffffffffffffffffffffffffffffffffffffffffff19168152602001908152602001600020600401819080600181540180825580915050600190039060005260206000200160009091909190915055505b5b600160056000837bffffffffffffffffffffffffffffffffffffffffffffffffffffffff19167bffffffffffffffffffffffffffffffffffffffffffffffffffffffff191681526020019081526020016000206002016000828254019250508190555050611940565b7f330000000000000000000000000000000000000000000000000000000000000060405160200180827effffffffffffffffffffffffffffffffffffffffffffffffffffffffffffff1916815260010191505060405160208183030381529060405280519060200120816000602081106114d257fe5b1a60f81b60405160200180827effffffffffffffffffffffffffffffffffffffffffffffffffffffffffffff1916815260010191505060405160208183030381529060405280519060200120141561193f5760006115728260016020811061153657fe5b1a60f81b8360026020811061154757fe5b1a60f81b8460036020811061155857fe5b1a60f81b8560036020811061156957fe5b1a60f81b612cad565b905061157d81611c40565b6115ef576040517f08c379a00000000000000000000000000000000000000000000000000000000081526004018080602001828103825260178152602001807f494e56414c49445f4445504152544d454e545f504f4c4c00000000000000000081525060200191505060405180910390fd5b7f310000000000000000000000000000000000000000000000000000000000000060405160200180827effffffffffffffffffffffffffffffffffffffffffffffffffffffffffffff19168152600101915050604051602081830303815290604052805190602001208260056020811061166557fe5b1a60f81b60405160200180827effffffffffffffffffffffffffffffffffffffffffffffffffffffffffffff1916815260010191505060405160208183030381529060405280519060200120141561171f57600160056000837bffffffffffffffffffffffffffffffffffffffffffffffffffffffff19167bffffffffffffffffffffffffffffffffffffffffffffffffffffffff19168152602001908152602001600020600001600082825401925050819055506118da565b7f310000000000000000000000000000000000000000000000000000000000000060405160200180827effffffffffffffffffffffffffffffffffffffffffffffffffffffffffffff19168152600101915050604051602081830303815290604052805190602001208260066020811061179557fe5b1a60f81b60405160200180827effffffffffffffffffffffffffffffffffffffffffffffffffffffffffffff1916815260010191505060405160208183030381529060405280519060200120141561184f57600160056000837bffffffffffffffffffffffffffffffffffffffffffffffffffffffff19167bffffffffffffffffffffffffffffffffffffffffffffffffffffffff19168152602001908152602001600020600101600082825401925050819055506118d9565b600061185a83612cf4565b905060036000837bffffffffffffffffffffffffffffffffffffffffffffffffffffffff19167bffffffffffffffffffffffffffffffffffffffffffffffffffffffff19168152602001908152602001600020600401819080600181540180825580915050600190039060005260206000200160009091909190915055505b5b600160036000837bffffffffffffffffffffffffffffffffffffffffffffffffffffffff19167bffffffffffffffffffffffffffffffffffffffffffffffffffffffff1916815260200190815260200160002060020160008282540192505081905550505b5b5b508080600101915050610a7f565b5050565b60008054906101000a900473ffffffffffffffffffffffffffffffffffffffff1673ffffffffffffffffffffffffffffffffffffffff163373ffffffffffffffffffffffffffffffffffffffff1614611a14576040517f08c379a000000000000000000000000000000000000000000000000000000000815260040180806020018281038252600d8152602001807f4143434553535f44454e4945440000000000000000000000000000000000000081525060200191505060405180910390fd5b60011515600660009054906101000a900460ff161515148015611a4a575060001515600660019054906101000a900460ff161515145b611abc576040517f08c379a00000000000000000000000000000000000000000000000000000000081526004018080602001828103825260168152602001807f454c454354494f4e5f414c52454144595f454e4445440000000000000000000081525060200191505060405180910390fd5b6001600660016101000a81548160ff021916908315150217905550565b60008054906101000a900473ffffffffffffffffffffffffffffffffffffffff1673ffffffffffffffffffffffffffffffffffffffff163373ffffffffffffffffffffffffffffffffffffffff1614611b9a576040517f08c379a000000000000000000000000000000000000000000000000000000000815260040180806020018281038252600d8152602001807f4143434553535f44454e4945440000000000000000000000000000000000000081525060200191505060405180910390fd5b60001515600660009054906101000a900460ff16151514611c23576040517f08c379a00000000000000000000000000000000000000000000000000000000081526004018080602001828103825260188152602001807f454c454354494f4e5f414c52454144595f53544152544544000000000000000081525060200191505060405180910390fd5b6001600660006101000a81548160ff021916908315150217905550565b6000806000905060005b600980549050811015611d2a5760098181548110611c6457fe5b90600052602060002090600891828204019190066004029054906101000a900460e01b60405160200180827bffffffffffffffffffffffffffffffffffffffffffffffffffffffff19168152600401915050604051602081830303815290604052805190602001208460405160200180827bffffffffffffffffffffffffffffffffffffffffffffffffffffffff19168152600401915050604051602081830303815290604052805190602001201415611d1d57600191505b8080600101915050611c4a565b5080915050919050565b611d3c613085565b60008054906101000a900473ffffffffffffffffffffffffffffffffffffffff1673ffffffffffffffffffffffffffffffffffffffff163373ffffffffffffffffffffffffffffffffffffffff1614611dfd576040517f08c379a000000000000000000000000000000000000000000000000000000000815260040180806020018281038252600d8152602001807f4143434553535f44454e4945440000000000000000000000000000000000000081525060200191505060405180910390fd5b604051806080016040528060046000857dffffffffffffffffffffffffffffffffffffffffffffffffffffffffffff19167dffffffffffffffffffffffffffffffffffffffffffffffffffffffffffff1916815260200190815260200160002060000154815260200160046000857dffffffffffffffffffffffffffffffffffffffffffffffffffffffffffff19167dffffffffffffffffffffffffffffffffffffffffffffffffffffffffffff1916815260200190815260200160002060010154815260200160046000857dffffffffffffffffffffffffffffffffffffffffffffffffffffffffffff19167dffffffffffffffffffffffffffffffffffffffffffffffffffffffffffff191681526020019081526020016000206000015460046000867dffffffffffffffffffffffffffffffffffffffffffffffffffffffffffff19167dffffffffffffffffffffffffffffffffffffffffffffffffffffffffffff191681526020019081526020016000206002015403815260200160046000857dffffffffffffffffffffffffffffffffffffffffffffffffffffffffffff19167dffffffffffffffffffffffffffffffffffffffffffffffffffffffffffff19168152602001908152602001600020600201548152509050919050565b606060008054906101000a900473ffffffffffffffffffffffffffffffffffffffff1673ffffffffffffffffffffffffffffffffffffffff163373ffffffffffffffffffffffffffffffffffffffff16146120a2576040517f08c379a000000000000000000000000000000000000000000000000000000000815260040180806020018281038252600d8152602001807f4143434553535f44454e4945440000000000000000000000000000000000000081525060200191505060405180910390fd5b60056000837bffffffffffffffffffffffffffffffffffffffffffffffffffffffff19167bffffffffffffffffffffffffffffffffffffffffffffffffffffffff1916815260200190815260200160002060040180548060200260200160405190810160405280929190818152602001828054801561214057602002820191906000526020600020905b81548152602001906001019080831161212c575b50505050509050919050565b6000806000905060005b60078054905081101561223a576007818154811061217057fe5b90600052602060002090601091828204019190066002029054906101000a900460f01b60405160200180827dffffffffffffffffffffffffffffffffffffffffffffffffffffffffffff19168152600201915050604051602081830303815290604052805190602001208460405160200180827dffffffffffffffffffffffffffffffffffffffffffffffffffffffffffff1916815260020191505060405160208183030381529060405280519060200120141561222d57600191505b8080600101915050612156565b5080915050919050565b6000600660019054906101000a900460ff16905090565b6000600660009054906101000a900460ff16905090565b60008054906101000a900473ffffffffffffffffffffffffffffffffffffffff1673ffffffffffffffffffffffffffffffffffffffff163373ffffffffffffffffffffffffffffffffffffffff1614612333576040517f08c379a000000000000000000000000000000000000000000000000000000000815260040180806020018281038252600d8152602001807f4143434553535f44454e4945440000000000000000000000000000000000000081525060200191505060405180910390fd5b60011515600260008373ffffffffffffffffffffffffffffffffffffffff1673ffffffffffffffffffffffffffffffffffffffff16815260200190815260200160002060009054906101000a900460ff16151514156123fa576040517f08c379a000000000000000000000000000000000000000000000000000000000815260040180806020018281038252600b8152602001807f4e4f44455f45584953545300000000000000000000000000000000000000000081525060200191505060405180910390fd5b6001819080600181540180825580915050600190039060005260206000200160009091909190916101000a81548173ffffffffffffffffffffffffffffffffffffffff021916908373ffffffffffffffffffffffffffffffffffffffff1602179055506001600260008373ffffffffffffffffffffffffffffffffffffffff1673ffffffffffffffffffffffffffffffffffffffff16815260200190815260200160002060006101000a81548160ff02191690831515021790555050565b6124c0613085565b60008054906101000a900473ffffffffffffffffffffffffffffffffffffffff1673ffffffffffffffffffffffffffffffffffffffff163373ffffffffffffffffffffffffffffffffffffffff1614612581576040517f08c379a000000000000000000000000000000000000000000000000000000000815260040180806020018281038252600d8152602001807f4143434553535f44454e4945440000000000000000000000000000000000000081525060200191505060405180910390fd5b604051806080016040528060036000857bffffffffffffffffffffffffffffffffffffffffffffffffffffffff19167bffffffffffffffffffffffffffffffffffffffffffffffffffffffff1916815260200190815260200160002060000154815260200160036000857bffffffffffffffffffffffffffffffffffffffffffffffffffffffff19167bffffffffffffffffffffffffffffffffffffffffffffffffffffffff1916815260200190815260200160002060010154815260200160036000857bffffffffffffffffffffffffffffffffffffffffffffffffffffffff19167bffffffffffffffffffffffffffffffffffffffffffffffffffffffff191681526020019081526020016000206000015460036000867bffffffffffffffffffffffffffffffffffffffffffffffffffffffff19167bffffffffffffffffffffffffffffffffffffffffffffffffffffffff191681526020019081526020016000206002015403815260200160036000857bffffffffffffffffffffffffffffffffffffffffffffffffffffffff19167bffffffffffffffffffffffffffffffffffffffffffffffffffffffff19168152602001908152602001600020600201548152509050919050565b600660009054906101000a900460ff1681565b606060008054906101000a900473ffffffffffffffffffffffffffffffffffffffff1673ffffffffffffffffffffffffffffffffffffffff163373ffffffffffffffffffffffffffffffffffffffff1614612825576040517f08c379a000000000000000000000000000000000000000000000000000000000815260040180806020018281038252600d8152602001807f4143434553535f44454e4945440000000000000000000000000000000000000081525060200191505060405180910390fd5b60036000837dffffffffffffffffffffffffffffffffffffffffffffffffffffffffffff19167bffffffffffffffffffffffffffffffffffffffffffffffffffffffff191681526020019081526020016000206004018054806020026020016040519081016040528092919081815260200182805480156128c557602002820191906000526020600020905b8154815260200190600101908083116128b1575b50505050509050919050565b600660019054906101000a900460ff1681565b6128ec613085565b60008054906101000a900473ffffffffffffffffffffffffffffffffffffffff1673ffffffffffffffffffffffffffffffffffffffff163373ffffffffffffffffffffffffffffffffffffffff16146129ad576040517f08c379a000000000000000000000000000000000000000000000000000000000815260040180806020018281038252600d8152602001807f4143434553535f44454e4945440000000000000000000000000000000000000081525060200191505060405180910390fd5b604051806080016040528060056000857bffffffffffffffffffffffffffffffffffffffffffffffffffffffff19167bffffffffffffffffffffffffffffffffffffffffffffffffffffffff1916815260200190815260200160002060000154815260200160056000857bffffffffffffffffffffffffffffffffffffffffffffffffffffffff19167bffffffffffffffffffffffffffffffffffffffffffffffffffffffff1916815260200190815260200160002060010154815260200160056000857bffffffffffffffffffffffffffffffffffffffffffffffffffffffff19167bffffffffffffffffffffffffffffffffffffffffffffffffffffffff191681526020019081526020016000206000015460056000867bffffffffffffffffffffffffffffffffffffffffffffffffffffffff19167bffffffffffffffffffffffffffffffffffffffffffffffffffffffff191681526020019081526020016000206002015403815260200160056000857bffffffffffffffffffffffffffffffffffffffffffffffffffffffff19167bffffffffffffffffffffffffffffffffffffffffffffffffffffffff19168152602001908152602001600020600201548152509050919050565b6000806000905060005b600880549050811015612c655760088181548110612b9f57fe5b90600052602060002090600891828204019190066004029054906101000a900460e01b60405160200180827bffffffffffffffffffffffffffffffffffffffffffffffffffffffff19168152600401915050604051602081830303815290604052805190602001208460405160200180827bffffffffffffffffffffffffffffffffffffffffffffffffffffffff19168152600401915050604051602081830303815290604052805190602001201415612c5857600191505b8080600101915050612b85565b5080915050919050565b60008160f81c60ff1660088460f81c60ff1661ffff16901b1760f01b905092915050565b6000612ca6612ca183612d0e565b612e47565b9050919050565b600080612cba8686612c6f565b90506000612cc88585612c6f565b90508060f01c61ffff1660108360f01c61ffff1663ffffffff16901b1760e01b92505050949350505050565b6000612d07612d0283612d0e565b612f66565b9050919050565b606060005b602081108015612d3957506000838260208110612d2c57fe5b1a60f81b60f81c60ff1614155b15612d4957806001019050612d13565b60608167ffffffffffffffff81118015612d6257600080fd5b506040519080825280601f01601f191660200182016040528015612d955781602001600182028036833780820191505090505b509050600091505b602082108015612de25750600060f81b848360208110612db957fe5b1a60f81b7effffffffffffffffffffffffffffffffffffffffffffffffffffffffffffff191614155b15612e3d57838260208110612df357fe5b1a60f81b818381518110612e0357fe5b60200101907effffffffffffffffffffffffffffffffffffffffffffffffffffffffffffff1916908160001a905350816001019150612d9d565b8092505050919050565b60006060600583510367ffffffffffffffff81118015612e6657600080fd5b506040519080825280601f01601f191660200182016040528015612e995781602001600182028036833780820191505090505b50905060005b6005845103811015612f0d57836005820181518110612eba57fe5b602001015160f81c60f81b828281518110612ed157fe5b60200101907effffffffffffffffffffffffffffffffffffffffffffffffffffffffffffff1916908160001a9053508080600101915050612e9f565b50600080600090505b8251811015612f5b5760018101835103600a0a6030848381518110612f3757fe5b602001015160f81c60f81b60f81c60ff160302820191508080600101915050612f16565b508092505050919050565b60006060600783510367ffffffffffffffff81118015612f8557600080fd5b506040519080825280601f01601f191660200182016040528015612fb85781602001600182028036833780820191505090505b50905060005b600784510381101561302c57836007820181518110612fd957fe5b602001015160f81c60f81b828281518110612ff057fe5b60200101907effffffffffffffffffffffffffffffffffffffffffffffffffffffffffffff1916908160001a9053508080600101915050612fbe565b50600080600090505b825181101561307a5760018101835103600a0a603084838151811061305657fe5b602001015160f81c60f81b60f81c60ff160302820191508080600101915050613035565b508092505050919050565b604051806080016040528060049060208202803683378082019150509050509056fea26469706673582212206492ecf15c75d35fa01091d7a2ff3f018ec2ad4d0ec8a4a3ffbf5b1177afd9ec64736f6c63430007000033",
  "linkReferences": {},
  "deployedLinkReferences": {}
}