{
  "_format": "hh-sol-artifact-1",
  "contractName": "AddOtherPolls",
  "sourceName": "contracts/addOtherPolls.sol",
  "abi": [
    {
      "inputs": [],
      "stateMutability": "nonpayable",
      "type": "constructor"
    },
    {
      "inputs": [
        {
          "internalType": "address",
          "name": "_node",
          "type": "address"
        }
      ],
      "name": "addNode",
      "outputs": [],
      "stateMutability": "nonpayable",
      "type": "function"
    },
    {
      "inputs": [],
      "name": "end",
      "outputs": [
        {
          "internalType": "bool",
          "name": "",
          "type": "bool"
        }
      ],
      "stateMutability": "view",
      "type": "function"
    },
    {
      "inputs": [],
      "name": "endElection",
      "outputs": [],
      "stateMutability": "nonpayable",
      "type": "function"
    },
    {
      "inputs": [],
      "name": "start",
      "outputs": [
        {
          "internalType": "bool",
          "name": "",
          "type": "bool"
        }
      ],
      "stateMutability": "view",
      "type": "function"
    },
    {
      "inputs": [],
      "name": "startElection",
      "outputs": [],
      "stateMutability": "nonpayable",
      "type": "function"
    },
    {
      "inputs": [],
      "name": "viewElectionEnded",
      "outputs": [
        {
          "internalType": "bool",
          "name": "",
          "type": "bool"
        }
      ],
      "stateMutability": "view",
      "type": "function"
    },
    {
      "inputs": [],
      "name": "viewElectionStarted",
      "outputs": [
        {
          "internalType": "bool",
          "name": "",
          "type": "bool"
        }
      ],
      "stateMutability": "view",
      "type": "function"
    },
    {
      "inputs": [],
      "name": "viewNodes",
      "outputs": [
        {
          "internalType": "address[]",
          "name": "",
          "type": "address[]"
        }
      ],
      "stateMutability": "view",
      "type": "function"
    }
  ],
  "bytecode": "0x60806040526000600660006101000a81548160ff0219169083151502179055506000600660016101000a81548160ff0219169083151502179055503480156200004757600080fd5b50336000806101000a81548173ffffffffffffffffffffffffffffffffffffffff021916908373ffffffffffffffffffffffffffffffffffffffff1602179055506200009262002efc565b600381606001818152505080600460007f41410000000000000000000000000000000000000000000000000000000000007dffffffffffffffffffffffffffffffffffffffffffffffffffffffffffff191681526020019081526020016000206000820151816000015560208201518160010155604082015181600201556060820151816003015560808201518160040190805190602001906200013892919062002f2b565b509050506007806001815401808255809150506001900390600052602060002090601091828204019190066002027f4141000000000000000000000000000000000000000000000000000000000000909190916101000a81548161ffff021916908360f01c0217905550620001ac62002efc565b600381606001818152505080600460007f52410000000000000000000000000000000000000000000000000000000000007dffffffffffffffffffffffffffffffffffffffffffffffffffffffffffff191681526020019081526020016000206000820151816000015560208201518160010155604082015181600201556060820151816003015560808201518160040190805190602001906200025292919062002f2b565b509050506007806001815401808255809150506001900390600052602060002090601091828204019190066002027f5241000000000000000000000000000000000000000000000000000000000000909190916101000a81548161ffff021916908360f01c0217905550620002c662002efc565b600381606001818152505080600460007f434f0000000000000000000000000000000000000000000000000000000000007dffffffffffffffffffffffffffffffffffffffffffffffffffffffffffff191681526020019081526020016000206000820151816000015560208201518160010155604082015181600201556060820151816003015560808201518160040190805190602001906200036c92919062002f2b565b509050506007806001815401808255809150506001900390600052602060002090601091828204019190066002027f434f000000000000000000000000000000000000000000000000000000000000909190916101000a81548161ffff021916908360f01c0217905550620003e062002efc565b600381606001818152505080600460007f43410000000000000000000000000000000000000000000000000000000000007dffffffffffffffffffffffffffffffffffffffffffffffffffffffffffff191681526020019081526020016000206000820151816000015560208201518160010155604082015181600201556060820151816003015560808201518160040190805190602001906200048692919062002f2b565b509050506007806001815401808255809150506001900390600052602060002090601091828204019190066002027f4341000000000000000000000000000000000000000000000000000000000000909190916101000a81548161ffff021916908360f01c0217905550620004fa62002efc565b600381606001818152505080600460007f434c0000000000000000000000000000000000000000000000000000000000007dffffffffffffffffffffffffffffffffffffffffffffffffffffffffffff19168152602001908152602001600020600082015181600001556020820151816001015560408201518160020155606082015181600301556080820151816004019080519060200190620005a092919062002f2b565b509050506007806001815401808255809150506001900390600052602060002090601091828204019190066002027f434c000000000000000000000000000000000000000000000000000000000000909190916101000a81548161ffff021916908360f01c02179055506200061462002efc565b600381606001818152505080600460007f49410000000000000000000000000000000000000000000000000000000000007dffffffffffffffffffffffffffffffffffffffffffffffffffffffffffff19168152602001908152602001600020600082015181600001556020820151816001015560408201518160020155606082015181600301556080820151816004019080519060200190620006ba92919062002f2b565b509050506007806001815401808255809150506001900390600052602060002090601091828204019190066002027f4941000000000000000000000000000000000000000000000000000000000000909190916101000a81548161ffff021916908360f01c02179055506200072e62002efc565b600381606001818152505080600460007f53500000000000000000000000000000000000000000000000000000000000007dffffffffffffffffffffffffffffffffffffffffffffffffffffffffffff19168152602001908152602001600020600082015181600001556020820151816001015560408201518160020155606082015181600301556080820151816004019080519060200190620007d492919062002f2b565b509050506007806001815401808255809150506001900390600052602060002090601091828204019190066002027f5350000000000000000000000000000000000000000000000000000000000000909190916101000a81548161ffff021916908360f01c02179055506200084862002efc565b600381606001818152505080600460007f48410000000000000000000000000000000000000000000000000000000000007dffffffffffffffffffffffffffffffffffffffffffffffffffffffffffff19168152602001908152602001600020600082015181600001556020820151816001015560408201518160020155606082015181600301556080820151816004019080519060200190620008ee92919062002f2b565b509050506007806001815401808255809150506001900390600052602060002090601091828204019190066002027f4841000000000000000000000000000000000000000000000000000000000000909190916101000a81548161ffff021916908360f01c02179055506200096262002efc565b600381606001818152505080600460007f47530000000000000000000000000000000000000000000000000000000000007dffffffffffffffffffffffffffffffffffffffffffffffffffffffffffff1916815260200190815260200160002060008201518160000155602082015181600101556040820151816002015560608201518160030155608082015181600401908051906020019062000a0892919062002f2b565b509050506007806001815401808255809150506001900390600052602060002090601091828204019190066002027f4753000000000000000000000000000000000000000000000000000000000000909190916101000a81548161ffff021916908360f01c021790555062000a7c62002efc565b600381606001818152505080600560007f41454254000000000000000000000000000000000000000000000000000000007bffffffffffffffffffffffffffffffffffffffffffffffffffffffff1916815260200190815260200160002060008201518160000155602082015181600101556040820151816002015560608201518160030155608082015181600401908051906020019062000b2092919062002f2b565b509050506009806001815401808255809150506001900390600052602060002090600891828204019190066004027f4145425400000000000000000000000000000000000000000000000000000000909190916101000a81548163ffffffff021916908360e01c021790555062000b9662002efc565b600381606001818152505080600560007f41455044000000000000000000000000000000000000000000000000000000007bffffffffffffffffffffffffffffffffffffffffffffffffffffffff1916815260200190815260200160002060008201518160000155602082015181600101556040820151816002015560608201518160030155608082015181600401908051906020019062000c3a92919062002f2b565b509050506009806001815401808255809150506001900390600052602060002090600891828204019190066004027f4145504400000000000000000000000000000000000000000000000000000000909190916101000a81548163ffffffff021916908360e01c021790555062000cb062002efc565b600381606001818152505080600560007f42544254000000000000000000000000000000000000000000000000000000007bffffffffffffffffffffffffffffffffffffffffffffffffffffffff1916815260200190815260200160002060008201518160000155602082015181600101556040820151816002015560608201518160030155608082015181600401908051906020019062000d5492919062002f2b565b509050506009806001815401808255809150506001900390600052602060002090600891828204019190066004027f4254425400000000000000000000000000000000000000000000000000000000909190916101000a81548163ffffffff021916908360e01c021790555062000dca62002efc565b600381606001818152505080600560007f42545044000000000000000000000000000000000000000000000000000000007bffffffffffffffffffffffffffffffffffffffffffffffffffffffff1916815260200190815260200160002060008201518160000155602082015181600101556040820151816002015560608201518160030155608082015181600401908051906020019062000e6e92919062002f2b565b509050506009806001815401808255809150506001900390600052602060002090600891828204019190066004027f4254504400000000000000000000000000000000000000000000000000000000909190916101000a81548163ffffffff021916908360e01c021790555062000ee462002efc565b600381606001818152505080600560007f43454254000000000000000000000000000000000000000000000000000000007bffffffffffffffffffffffffffffffffffffffffffffffffffffffff1916815260200190815260200160002060008201518160000155602082015181600101556040820151816002015560608201518160030155608082015181600401908051906020019062000f8892919062002f2b565b509050506009806001815401808255809150506001900390600052602060002090600891828204019190066004027f4345425400000000000000000000000000000000000000000000000000000000909190916101000a81548163ffffffff021916908360e01c021790555062000ffe62002efc565b600381606001818152505080600560007f43455044000000000000000000000000000000000000000000000000000000007bffffffffffffffffffffffffffffffffffffffffffffffffffffffff19168152602001908152602001600020600082015181600001556020820151816001015560408201518160020155606082015181600301556080820151816004019080519060200190620010a292919062002f2b565b509050506009806001815401808255809150506001900390600052602060002090600891828204019190066004027f4345504400000000000000000000000000000000000000000000000000000000909190916101000a81548163ffffffff021916908360e01c02179055506200111862002efc565b600381606001818152505080600560007f43484254000000000000000000000000000000000000000000000000000000007bffffffffffffffffffffffffffffffffffffffffffffffffffffffff19168152602001908152602001600020600082015181600001556020820151816001015560408201518160020155606082015181600301556080820151816004019080519060200190620011bc92919062002f2b565b509050506009806001815401808255809150506001900390600052602060002090600891828204019190066004027f4348425400000000000000000000000000000000000000000000000000000000909190916101000a81548163ffffffff021916908360e01c02179055506200123262002efc565b600381606001818152505080600560007f43485044000000000000000000000000000000000000000000000000000000007bffffffffffffffffffffffffffffffffffffffffffffffffffffffff19168152602001908152602001600020600082015181600001556020820151816001015560408201518160020155606082015181600301556080820151816004019080519060200190620012d692919062002f2b565b509050506009806001815401808255809150506001900390600052602060002090600891828204019190066004027f4348504400000000000000000000000000000000000000000000000000000000909190916101000a81548163ffffffff021916908360e01c02179055506200134c62002efc565b600381606001818152505080600560007f43534254000000000000000000000000000000000000000000000000000000007bffffffffffffffffffffffffffffffffffffffffffffffffffffffff19168152602001908152602001600020600082015181600001556020820151816001015560408201518160020155606082015181600301556080820151816004019080519060200190620013f092919062002f2b565b509050506009806001815401808255809150506001900390600052602060002090600891828204019190066004027f4353425400000000000000000000000000000000000000000000000000000000909190916101000a81548163ffffffff021916908360e01c02179055506200146662002efc565b600381606001818152505080600560007f43535044000000000000000000000000000000000000000000000000000000007bffffffffffffffffffffffffffffffffffffffffffffffffffffffff191681526020019081526020016000206000820151816000015560208201518160010155604082015181600201556060820151816003015560808201518160040190805190602001906200150a92919062002f2b565b509050506009806001815401808255809150506001900390600052602060002090600891828204019190066004027f4353504400000000000000000000000000000000000000000000000000000000909190916101000a81548163ffffffff021916908360e01c02179055506200158062002efc565b600381606001818152505080600560007f43594254000000000000000000000000000000000000000000000000000000007bffffffffffffffffffffffffffffffffffffffffffffffffffffffff191681526020019081526020016000206000820151816000015560208201518160010155604082015181600201556060820151816003015560808201518160040190805190602001906200162492919062002f2b565b509050506009806001815401808255809150506001900390600052602060002090600891828204019190066004027f4359425400000000000000000000000000000000000000000000000000000000909190916101000a81548163ffffffff021916908360e01c02179055506200169a62002efc565b600381606001818152505080600560007f43595044000000000000000000000000000000000000000000000000000000007bffffffffffffffffffffffffffffffffffffffffffffffffffffffff191681526020019081526020016000206000820151816000015560208201518160010155604082015181600201556060820151816003015560808201518160040190805190602001906200173e92919062002f2b565b509050506009806001815401808255809150506001900390600052602060002090600891828204019190066004027f4359504400000000000000000000000000000000000000000000000000000000909190916101000a81548163ffffffff021916908360e01c0217905550620017b462002efc565b600381606001818152505080600560007f45444254000000000000000000000000000000000000000000000000000000007bffffffffffffffffffffffffffffffffffffffffffffffffffffffff191681526020019081526020016000206000820151816000015560208201518160010155604082015181600201556060820151816003015560808201518160040190805190602001906200185892919062002f2b565b509050506009806001815401808255809150506001900390600052602060002090600891828204019190066004027f4544425400000000000000000000000000000000000000000000000000000000909190916101000a81548163ffffffff021916908360e01c0217905550620018ce62002efc565b600381606001818152505080600560007f45445044000000000000000000000000000000000000000000000000000000007bffffffffffffffffffffffffffffffffffffffffffffffffffffffff191681526020019081526020016000206000820151816000015560208201518160010155604082015181600201556060820151816003015560808201518160040190805190602001906200197292919062002f2b565b509050506009806001815401808255809150506001900390600052602060002090600891828204019190066004027f4544504400000000000000000000000000000000000000000000000000000000909190916101000a81548163ffffffff021916908360e01c0217905550620019e862002efc565b600381606001818152505080600560007f45454254000000000000000000000000000000000000000000000000000000007bffffffffffffffffffffffffffffffffffffffffffffffffffffffff1916815260200190815260200160002060008201518160000155602082015181600101556040820151816002015560608201518160030155608082015181600401908051906020019062001a8c92919062002f2b565b509050506009806001815401808255809150506001900390600052602060002090600891828204019190066004027f4545425400000000000000000000000000000000000000000000000000000000909190916101000a81548163ffffffff021916908360e01c021790555062001b0262002efc565b600381606001818152505080600560007f45455044000000000000000000000000000000000000000000000000000000007bffffffffffffffffffffffffffffffffffffffffffffffffffffffff1916815260200190815260200160002060008201518160000155602082015181600101556040820151816002015560608201518160030155608082015181600401908051906020019062001ba692919062002f2b565b509050506009806001815401808255809150506001900390600052602060002090600891828204019190066004027f4545504400000000000000000000000000000000000000000000000000000000909190916101000a81548163ffffffff021916908360e01c021790555062001c1c62002efc565b600381606001818152505080600560007f45504254000000000000000000000000000000000000000000000000000000007bffffffffffffffffffffffffffffffffffffffffffffffffffffffff1916815260200190815260200160002060008201518160000155602082015181600101556040820151816002015560608201518160030155608082015181600401908051906020019062001cc092919062002f2b565b509050506009806001815401808255809150506001900390600052602060002090600891828204019190066004027f4550425400000000000000000000000000000000000000000000000000000000909190916101000a81548163ffffffff021916908360e01c021790555062001d3662002efc565b600381606001818152505080600560007f48534254000000000000000000000000000000000000000000000000000000007bffffffffffffffffffffffffffffffffffffffffffffffffffffffff1916815260200190815260200160002060008201518160000155602082015181600101556040820151816002015560608201518160030155608082015181600401908051906020019062001dda92919062002f2b565b509050506009806001815401808255809150506001900390600052602060002090600891828204019190066004027f4853425400000000000000000000000000000000000000000000000000000000909190916101000a81548163ffffffff021916908360e01c021790555062001e5062002efc565b600381606001818152505080600560007f48535044000000000000000000000000000000000000000000000000000000007bffffffffffffffffffffffffffffffffffffffffffffffffffffffff1916815260200190815260200160002060008201518160000155602082015181600101556040820151816002015560608201518160030155608082015181600401908051906020019062001ef492919062002f2b565b509050506009806001815401808255809150506001900390600052602060002090600891828204019190066004027f4853504400000000000000000000000000000000000000000000000000000000909190916101000a81548163ffffffff021916908360e01c021790555062001f6a62002efc565b600381606001818152505080600560007f4d534254000000000000000000000000000000000000000000000000000000007bffffffffffffffffffffffffffffffffffffffffffffffffffffffff191681526020019081526020016000206000820151816000015560208201518160010155604082015181600201556060820151816003015560808201518160040190805190602001906200200e92919062002f2b565b509050506009806001815401808255809150506001900390600052602060002090600891828204019190066004027f4d53425400000000000000000000000000000000000000000000000000000000909190916101000a81548163ffffffff021916908360e01c02179055506200208462002efc565b600381606001818152505080600560007f4d535044000000000000000000000000000000000000000000000000000000007bffffffffffffffffffffffffffffffffffffffffffffffffffffffff191681526020019081526020016000206000820151816000015560208201518160010155604082015181600201556060820151816003015560808201518160040190805190602001906200212892919062002f2b565b509050506009806001815401808255809150506001900390600052602060002090600891828204019190066004027f4d53504400000000000000000000000000000000000000000000000000000000909190916101000a81548163ffffffff021916908360e01c02179055506200219e62002efc565b600381606001818152505080600560007f4d414254000000000000000000000000000000000000000000000000000000007bffffffffffffffffffffffffffffffffffffffffffffffffffffffff191681526020019081526020016000206000820151816000015560208201518160010155604082015181600201556060820151816003015560808201518160040190805190602001906200224292919062002f2b565b509050506009806001815401808255809150506001900390600052602060002090600891828204019190066004027f4d41425400000000000000000000000000000000000000000000000000000000909190916101000a81548163ffffffff021916908360e01c0217905550620022b862002efc565b600381606001818152505080600560007f4d415044000000000000000000000000000000000000000000000000000000007bffffffffffffffffffffffffffffffffffffffffffffffffffffffff191681526020019081526020016000206000820151816000015560208201518160010155604082015181600201556060820151816003015560808201518160040190805190602001906200235c92919062002f2b565b509050506009806001815401808255809150506001900390600052602060002090600891828204019190066004027f4d41504400000000000000000000000000000000000000000000000000000000909190916101000a81548163ffffffff021916908360e01c0217905550620023d262002efc565b600381606001818152505080600560007f4d454254000000000000000000000000000000000000000000000000000000007bffffffffffffffffffffffffffffffffffffffffffffffffffffffff191681526020019081526020016000206000820151816000015560208201518160010155604082015181600201556060820151816003015560808201518160040190805190602001906200247692919062002f2b565b509050506009806001815401808255809150506001900390600052602060002090600891828204019190066004027f4d45425400000000000000000000000000000000000000000000000000000000909190916101000a81548163ffffffff021916908360e01c0217905550620024ec62002efc565b600381606001818152505080600560007f4d455044000000000000000000000000000000000000000000000000000000007bffffffffffffffffffffffffffffffffffffffffffffffffffffffff191681526020019081526020016000206000820151816000015560208201518160010155604082015181600201556060820151816003015560808201518160040190805190602001906200259092919062002f2b565b509050506009806001815401808255809150506001900390600052602060002090600891828204019190066004027f4d45504400000000000000000000000000000000000000000000000000000000909190916101000a81548163ffffffff021916908360e01c02179055506200260662002efc565b600381606001818152505080600560007f4d4d4254000000000000000000000000000000000000000000000000000000007bffffffffffffffffffffffffffffffffffffffffffffffffffffffff19168152602001908152602001600020600082015181600001556020820151816001015560408201518160020155606082015181600301556080820151816004019080519060200190620026aa92919062002f2b565b509050506009806001815401808255809150506001900390600052602060002090600891828204019190066004027f4d4d425400000000000000000000000000000000000000000000000000000000909190916101000a81548163ffffffff021916908360e01c02179055506200272062002efc565b600381606001818152505080600560007f4d4d5044000000000000000000000000000000000000000000000000000000007bffffffffffffffffffffffffffffffffffffffffffffffffffffffff19168152602001908152602001600020600082015181600001556020820151816001015560408201518160020155606082015181600301556080820151816004019080519060200190620027c492919062002f2b565b509050506009806001815401808255809150506001900390600052602060002090600891828204019190066004027f4d4d504400000000000000000000000000000000000000000000000000000000909190916101000a81548163ffffffff021916908360e01c02179055506200283a62002efc565b600381606001818152505080600560007f4f454254000000000000000000000000000000000000000000000000000000007bffffffffffffffffffffffffffffffffffffffffffffffffffffffff19168152602001908152602001600020600082015181600001556020820151816001015560408201518160020155606082015181600301556080820151816004019080519060200190620028de92919062002f2b565b509050506009806001815401808255809150506001900390600052602060002090600891828204019190066004027f4f45425400000000000000000000000000000000000000000000000000000000909190916101000a81548163ffffffff021916908360e01c02179055506200295462002efc565b600381606001818152505080600560007f4f455044000000000000000000000000000000000000000000000000000000007bffffffffffffffffffffffffffffffffffffffffffffffffffffffff19168152602001908152602001600020600082015181600001556020820151816001015560408201518160020155606082015181600301556080820151816004019080519060200190620029f892919062002f2b565b509050506009806001815401808255809150506001900390600052602060002090600891828204019190066004027f4f45504400000000000000000000000000000000000000000000000000000000909190916101000a81548163ffffffff021916908360e01c021790555062002a6e62002efc565b600381606001818152505080600560007f50484254000000000000000000000000000000000000000000000000000000007bffffffffffffffffffffffffffffffffffffffffffffffffffffffff1916815260200190815260200160002060008201518160000155602082015181600101556040820151816002015560608201518160030155608082015181600401908051906020019062002b1292919062002f2b565b509050506009806001815401808255809150506001900390600052602060002090600891828204019190066004027f5048425400000000000000000000000000000000000000000000000000000000909190916101000a81548163ffffffff021916908360e01c021790555062002b8862002efc565b600381606001818152505080600560007f50485044000000000000000000000000000000000000000000000000000000007bffffffffffffffffffffffffffffffffffffffffffffffffffffffff1916815260200190815260200160002060008201518160000155602082015181600101556040820151816002015560608201518160030155608082015181600401908051906020019062002c2c92919062002f2b565b509050506009806001815401808255809150506001900390600052602060002090600891828204019190066004027f5048504400000000000000000000000000000000000000000000000000000000909190916101000a81548163ffffffff021916908360e01c021790555062002ca262002efc565b600381606001818152505080600560007f414d5044000000000000000000000000000000000000000000000000000000007bffffffffffffffffffffffffffffffffffffffffffffffffffffffff1916815260200190815260200160002060008201518160000155602082015181600101556040820151816002015560608201518160030155608082015181600401908051906020019062002d4692919062002f2b565b509050506009806001815401808255809150506001900390600052602060002090600891828204019190066004027f414d504400000000000000000000000000000000000000000000000000000000909190916101000a81548163ffffffff021916908360e01c021790555062002dbc62002efc565b600381606001818152505080600560007f4d544d54000000000000000000000000000000000000000000000000000000007bffffffffffffffffffffffffffffffffffffffffffffffffffffffff1916815260200190815260200160002060008201518160000155602082015181600101556040820151816002015560608201518160030155608082015181600401908051906020019062002e6092919062002f2b565b509050506009806001815401808255809150506001900390600052602060002090600891828204019190066004027f4d544d5400000000000000000000000000000000000000000000000000000000909190916101000a81548163ffffffff021916908360e01c021790555050505050505050505050505050505050505050505050505050505050505050505050505050505050505062002f9c565b6040518060a0016040528060008152602001600081526020016000815260200160008152602001606081525090565b82805482825590600052602060002090810192821562002f6a579160200282015b8281111562002f6957825182559160200191906001019062002f4c565b5b50905062002f79919062002f7d565b5090565b5b8082111562002f9857600081600090555060010162002f7e565b5090565b6108d08062002fac6000396000f3fe608060405234801561001057600080fd5b50600436106100885760003560e01c80639116c2881161005b5780639116c288146101205780639d95f1cc14610140578063be9a655514610184578063efbe1c1c146101a457610088565b8063183d1f621461008d57806359f78468146100ec57806362d73eb8146100f657806388ff499a14610100575b600080fd5b6100956101c4565b6040518080602001828103825283818151815260200191508051906020019060200280838360005b838110156100d85780820151818401526020810190506100bd565b505050509050019250505060405180910390f35b6100f4610313565b005b6100fe610499565b005b610108610600565b60405180821515815260200191505060405180910390f35b610128610617565b60405180821515815260200191505060405180910390f35b6101826004803603602081101561015657600080fd5b81019080803573ffffffffffffffffffffffffffffffffffffffff16906020019092919050505061062e565b005b61018c610874565b60405180821515815260200191505060405180910390f35b6101ac610887565b60405180821515815260200191505060405180910390f35b606060008054906101000a900473ffffffffffffffffffffffffffffffffffffffff1673ffffffffffffffffffffffffffffffffffffffff163373ffffffffffffffffffffffffffffffffffffffff1614610287576040517f08c379a000000000000000000000000000000000000000000000000000000000815260040180806020018281038252600d8152602001807f4143434553535f44454e4945440000000000000000000000000000000000000081525060200191505060405180910390fd5b600180548060200260200160405190810160405280929190818152602001828054801561030957602002820191906000526020600020905b8160009054906101000a900473ffffffffffffffffffffffffffffffffffffffff1673ffffffffffffffffffffffffffffffffffffffff16815260200190600101908083116102bf575b5050505050905090565b60008054906101000a900473ffffffffffffffffffffffffffffffffffffffff1673ffffffffffffffffffffffffffffffffffffffff163373ffffffffffffffffffffffffffffffffffffffff16146103d4576040517f08c379a000000000000000000000000000000000000000000000000000000000815260040180806020018281038252600d8152602001807f4143434553535f44454e4945440000000000000000000000000000000000000081525060200191505060405180910390fd5b60011515600660009054906101000a900460ff16151514801561040a575060001515600660019054906101000a900460ff161515145b61047c576040517f08c379a00000000000000000000000000000000000000000000000000000000081526004018080602001828103825260168152602001807f454c454354494f4e5f414c52454144595f454e4445440000000000000000000081525060200191505060405180910390fd5b6001600660016101000a81548160ff021916908315150217905550565b60008054906101000a900473ffffffffffffffffffffffffffffffffffffffff1673ffffffffffffffffffffffffffffffffffffffff163373ffffffffffffffffffffffffffffffffffffffff161461055a576040517f08c379a000000000000000000000000000000000000000000000000000000000815260040180806020018281038252600d8152602001807f4143434553535f44454e4945440000000000000000000000000000000000000081525060200191505060405180910390fd5b60001515600660009054906101000a900460ff161515146105e3576040517f08c379a00000000000000000000000000000000000000000000000000000000081526004018080602001828103825260188152602001807f454c454354494f4e5f414c52454144595f53544152544544000000000000000081525060200191505060405180910390fd5b6001600660006101000a81548160ff021916908315150217905550565b6000600660019054906101000a900460ff16905090565b6000600660009054906101000a900460ff16905090565b60008054906101000a900473ffffffffffffffffffffffffffffffffffffffff1673ffffffffffffffffffffffffffffffffffffffff163373ffffffffffffffffffffffffffffffffffffffff16146106ef576040517f08c379a000000000000000000000000000000000000000000000000000000000815260040180806020018281038252600d8152602001807f4143434553535f44454e4945440000000000000000000000000000000000000081525060200191505060405180910390fd5b60011515600260008373ffffffffffffffffffffffffffffffffffffffff1673ffffffffffffffffffffffffffffffffffffffff16815260200190815260200160002060009054906101000a900460ff16151514156107b6576040517f08c379a000000000000000000000000000000000000000000000000000000000815260040180806020018281038252600b8152602001807f4e4f44455f45584953545300000000000000000000000000000000000000000081525060200191505060405180910390fd5b6001819080600181540180825580915050600190039060005260206000200160009091909190916101000a81548173ffffffffffffffffffffffffffffffffffffffff021916908373ffffffffffffffffffffffffffffffffffffffff1602179055506001600260008373ffffffffffffffffffffffffffffffffffffffff1673ffffffffffffffffffffffffffffffffffffffff16815260200190815260200160002060006101000a81548160ff02191690831515021790555050565b600660009054906101000a900460ff1681565b600660019054906101000a900460ff168156fea26469706673582212200258d0b7a55f7fc8c0a12d3c3b3c4066180c6bd9a50ec4243f666fe51f6a6a4f64736f6c63430007000033",
  "linkReferences": {},
  "deployedLinkReferences": {}
}