{
  "_format": "hh-sol-artifact-1",
  "contractName": "AddHostelPollsD",
  "sourceName": "contracts/addHostelPollsD.sol",
  "abi": [
    {
      "inputs": [],
      "stateMutability": "nonpayable",
      "type": "constructor"
    },
    {
      "inputs": [
        {
          "internalType": "address",
          "name": "_node",
          "type": "address"
        }
      ],
      "name": "addNode",
      "outputs": [],
      "stateMutability": "nonpayable",
      "type": "function"
    },
    {
      "inputs": [],
      "name": "end",
      "outputs": [
        {
          "internalType": "bool",
          "name": "",
          "type": "bool"
        }
      ],
      "stateMutability": "view",
      "type": "function"
    },
    {
      "inputs": [],
      "name": "endElection",
      "outputs": [],
      "stateMutability": "nonpayable",
      "type": "function"
    },
    {
      "inputs": [],
      "name": "start",
      "outputs": [
        {
          "internalType": "bool",
          "name": "",
          "type": "bool"
        }
      ],
      "stateMutability": "view",
      "type": "function"
    },
    {
      "inputs": [],
      "name": "startElection",
      "outputs": [],
      "stateMutability": "nonpayable",
      "type": "function"
    },
    {
      "inputs": [],
      "name": "viewElectionEnded",
      "outputs": [
        {
          "internalType": "bool",
          "name": "",
          "type": "bool"
        }
      ],
      "stateMutability": "view",
      "type": "function"
    },
    {
      "inputs": [],
      "name": "viewElectionStarted",
      "outputs": [
        {
          "internalType": "bool",
          "name": "",
          "type": "bool"
        }
      ],
      "stateMutability": "view",
      "type": "function"
    },
    {
      "inputs": [],
      "name": "viewNodes",
      "outputs": [
        {
          "internalType": "address[]",
          "name": "",
          "type": "address[]"
        }
      ],
      "stateMutability": "view",
      "type": "function"
    }
  ],
  "bytecode": "0x60806040526000600660006101000a81548160ff0219169083151502179055506000600660016101000a81548160ff0219169083151502179055503480156200004757600080fd5b50336000806101000a81548173ffffffffffffffffffffffffffffffffffffffff021916908373ffffffffffffffffffffffffffffffffffffffff1602179055506200009262001f82565b600381606001818152505080600560007f534e4753000000000000000000000000000000000000000000000000000000007bffffffffffffffffffffffffffffffffffffffffffffffffffffffff191681526020019081526020016000206000820151816000015560208201518160010155604082015181600201556060820151816003015560808201518160040190805190602001906200013692919062001fb1565b509050506008806001815401808255809150506001900390600052602060002090600891828204019190066004027f534e475300000000000000000000000000000000000000000000000000000000909190916101000a81548163ffffffff021916908360e01c0217905550620001ac62001f82565b600381606001818152505080600560007f534e4848000000000000000000000000000000000000000000000000000000007bffffffffffffffffffffffffffffffffffffffffffffffffffffffff191681526020019081526020016000206000820151816000015560208201518160010155604082015181600201556060820151816003015560808201518160040190805190602001906200025092919062001fb1565b509050506008806001815401808255809150506001900390600052602060002090600891828204019190066004027f534e484800000000000000000000000000000000000000000000000000000000909190916101000a81548163ffffffff021916908360e01c0217905550620002c662001f82565b600381606001818152505080600560007f534e484c000000000000000000000000000000000000000000000000000000007bffffffffffffffffffffffffffffffffffffffffffffffffffffffff191681526020019081526020016000206000820151816000015560208201518160010155604082015181600201556060820151816003015560808201518160040190805190602001906200036a92919062001fb1565b509050506008806001815401808255809150506001900390600052602060002090600891828204019190066004027f534e484c00000000000000000000000000000000000000000000000000000000909190916101000a81548163ffffffff021916908360e01c0217905550620003e062001f82565b600381606001818152505080600560007f534e4c53000000000000000000000000000000000000000000000000000000007bffffffffffffffffffffffffffffffffffffffffffffffffffffffff191681526020019081526020016000206000820151816000015560208201518160010155604082015181600201556060820151816003015560808201518160040190805190602001906200048492919062001fb1565b509050506008806001815401808255809150506001900390600052602060002090600891828204019190066004027f534e4c5300000000000000000000000000000000000000000000000000000000909190916101000a81548163ffffffff021916908360e01c0217905550620004fa62001f82565b600381606001818152505080600560007f534e534f000000000000000000000000000000000000000000000000000000007bffffffffffffffffffffffffffffffffffffffffffffffffffffffff191681526020019081526020016000206000820151816000015560208201518160010155604082015181600201556060820151816003015560808201518160040190805190602001906200059e92919062001fb1565b509050506008806001815401808255809150506001900390600052602060002090600891828204019190066004027f534e534f00000000000000000000000000000000000000000000000000000000909190916101000a81548163ffffffff021916908360e01c02179055506200061462001f82565b600381606001818152505080600560007f534e5350000000000000000000000000000000000000000000000000000000007bffffffffffffffffffffffffffffffffffffffffffffffffffffffff19168152602001908152602001600020600082015181600001556020820151816001015560408201518160020155606082015181600301556080820151816004019080519060200190620006b892919062001fb1565b509050506008806001815401808255809150506001900390600052602060002090600891828204019190066004027f534e535000000000000000000000000000000000000000000000000000000000909190916101000a81548163ffffffff021916908360e01c02179055506200072e62001f82565b600381606001818152505080600560007f534e5453000000000000000000000000000000000000000000000000000000007bffffffffffffffffffffffffffffffffffffffffffffffffffffffff19168152602001908152602001600020600082015181600001556020820151816001015560408201518160020155606082015181600301556080820151816004019080519060200190620007d292919062001fb1565b509050506008806001815401808255809150506001900390600052602060002090600891828204019190066004027f534e545300000000000000000000000000000000000000000000000000000000909190916101000a81548163ffffffff021916908360e01c02179055506200084862001f82565b600381606001818152505080600560007f544d4753000000000000000000000000000000000000000000000000000000007bffffffffffffffffffffffffffffffffffffffffffffffffffffffff19168152602001908152602001600020600082015181600001556020820151816001015560408201518160020155606082015181600301556080820151816004019080519060200190620008ec92919062001fb1565b509050506008806001815401808255809150506001900390600052602060002090600891828204019190066004027f544d475300000000000000000000000000000000000000000000000000000000909190916101000a81548163ffffffff021916908360e01c02179055506200096262001f82565b600381606001818152505080600560007f544d4848000000000000000000000000000000000000000000000000000000007bffffffffffffffffffffffffffffffffffffffffffffffffffffffff1916815260200190815260200160002060008201518160000155602082015181600101556040820151816002015560608201518160030155608082015181600401908051906020019062000a0692919062001fb1565b509050506008806001815401808255809150506001900390600052602060002090600891828204019190066004027f544d484800000000000000000000000000000000000000000000000000000000909190916101000a81548163ffffffff021916908360e01c021790555062000a7c62001f82565b600381606001818152505080600560007f544d484c000000000000000000000000000000000000000000000000000000007bffffffffffffffffffffffffffffffffffffffffffffffffffffffff1916815260200190815260200160002060008201518160000155602082015181600101556040820151816002015560608201518160030155608082015181600401908051906020019062000b2092919062001fb1565b509050506008806001815401808255809150506001900390600052602060002090600891828204019190066004027f544d484c00000000000000000000000000000000000000000000000000000000909190916101000a81548163ffffffff021916908360e01c021790555062000b9662001f82565b600381606001818152505080600560007f544d4c53000000000000000000000000000000000000000000000000000000007bffffffffffffffffffffffffffffffffffffffffffffffffffffffff1916815260200190815260200160002060008201518160000155602082015181600101556040820151816002015560608201518160030155608082015181600401908051906020019062000c3a92919062001fb1565b509050506008806001815401808255809150506001900390600052602060002090600891828204019190066004027f544d4c5300000000000000000000000000000000000000000000000000000000909190916101000a81548163ffffffff021916908360e01c021790555062000cb062001f82565b600381606001818152505080600560007f544d534f000000000000000000000000000000000000000000000000000000007bffffffffffffffffffffffffffffffffffffffffffffffffffffffff1916815260200190815260200160002060008201518160000155602082015181600101556040820151816002015560608201518160030155608082015181600401908051906020019062000d5492919062001fb1565b509050506008806001815401808255809150506001900390600052602060002090600891828204019190066004027f544d534f00000000000000000000000000000000000000000000000000000000909190916101000a81548163ffffffff021916908360e01c021790555062000dca62001f82565b600381606001818152505080600560007f544d5350000000000000000000000000000000000000000000000000000000007bffffffffffffffffffffffffffffffffffffffffffffffffffffffff1916815260200190815260200160002060008201518160000155602082015181600101556040820151816002015560608201518160030155608082015181600401908051906020019062000e6e92919062001fb1565b509050506008806001815401808255809150506001900390600052602060002090600891828204019190066004027f544d535000000000000000000000000000000000000000000000000000000000909190916101000a81548163ffffffff021916908360e01c021790555062000ee462001f82565b600381606001818152505080600560007f544d5453000000000000000000000000000000000000000000000000000000007bffffffffffffffffffffffffffffffffffffffffffffffffffffffff1916815260200190815260200160002060008201518160000155602082015181600101556040820151816002015560608201518160030155608082015181600401908051906020019062000f8892919062001fb1565b509050506008806001815401808255809150506001900390600052602060002090600891828204019190066004027f544d545300000000000000000000000000000000000000000000000000000000909190916101000a81548163ffffffff021916908360e01c021790555062000ffe62001f82565b600381606001818152505080600560007f54504753000000000000000000000000000000000000000000000000000000007bffffffffffffffffffffffffffffffffffffffffffffffffffffffff19168152602001908152602001600020600082015181600001556020820151816001015560408201518160020155606082015181600301556080820151816004019080519060200190620010a292919062001fb1565b509050506008806001815401808255809150506001900390600052602060002090600891828204019190066004027f5450475300000000000000000000000000000000000000000000000000000000909190916101000a81548163ffffffff021916908360e01c02179055506200111862001f82565b600381606001818152505080600560007f54504848000000000000000000000000000000000000000000000000000000007bffffffffffffffffffffffffffffffffffffffffffffffffffffffff19168152602001908152602001600020600082015181600001556020820151816001015560408201518160020155606082015181600301556080820151816004019080519060200190620011bc92919062001fb1565b509050506008806001815401808255809150506001900390600052602060002090600891828204019190066004027f5450484800000000000000000000000000000000000000000000000000000000909190916101000a81548163ffffffff021916908360e01c02179055506200123262001f82565b600381606001818152505080600560007f5450484c000000000000000000000000000000000000000000000000000000007bffffffffffffffffffffffffffffffffffffffffffffffffffffffff19168152602001908152602001600020600082015181600001556020820151816001015560408201518160020155606082015181600301556080820151816004019080519060200190620012d692919062001fb1565b509050506008806001815401808255809150506001900390600052602060002090600891828204019190066004027f5450484c00000000000000000000000000000000000000000000000000000000909190916101000a81548163ffffffff021916908360e01c02179055506200134c62001f82565b600381606001818152505080600560007f54504c53000000000000000000000000000000000000000000000000000000007bffffffffffffffffffffffffffffffffffffffffffffffffffffffff19168152602001908152602001600020600082015181600001556020820151816001015560408201518160020155606082015181600301556080820151816004019080519060200190620013f092919062001fb1565b509050506008806001815401808255809150506001900390600052602060002090600891828204019190066004027f54504c5300000000000000000000000000000000000000000000000000000000909190916101000a81548163ffffffff021916908360e01c02179055506200146662001f82565b600381606001818152505080600560007f5450534f000000000000000000000000000000000000000000000000000000007bffffffffffffffffffffffffffffffffffffffffffffffffffffffff191681526020019081526020016000206000820151816000015560208201518160010155604082015181600201556060820151816003015560808201518160040190805190602001906200150a92919062001fb1565b509050506008806001815401808255809150506001900390600052602060002090600891828204019190066004027f5450534f00000000000000000000000000000000000000000000000000000000909190916101000a81548163ffffffff021916908360e01c02179055506200158062001f82565b600381606001818152505080600560007f54505350000000000000000000000000000000000000000000000000000000007bffffffffffffffffffffffffffffffffffffffffffffffffffffffff191681526020019081526020016000206000820151816000015560208201518160010155604082015181600201556060820151816003015560808201518160040190805190602001906200162492919062001fb1565b509050506008806001815401808255809150506001900390600052602060002090600891828204019190066004027f5450535000000000000000000000000000000000000000000000000000000000909190916101000a81548163ffffffff021916908360e01c02179055506200169a62001f82565b600381606001818152505080600560007f54505453000000000000000000000000000000000000000000000000000000007bffffffffffffffffffffffffffffffffffffffffffffffffffffffff191681526020019081526020016000206000820151816000015560208201518160010155604082015181600201556060820151816003015560808201518160040190805190602001906200173e92919062001fb1565b509050506008806001815401808255809150506001900390600052602060002090600891828204019190066004027f5450545300000000000000000000000000000000000000000000000000000000909190916101000a81548163ffffffff021916908360e01c0217905550620017b462001f82565b600381606001818152505080600560007f54554753000000000000000000000000000000000000000000000000000000007bffffffffffffffffffffffffffffffffffffffffffffffffffffffff191681526020019081526020016000206000820151816000015560208201518160010155604082015181600201556060820151816003015560808201518160040190805190602001906200185892919062001fb1565b509050506008806001815401808255809150506001900390600052602060002090600891828204019190066004027f5455475300000000000000000000000000000000000000000000000000000000909190916101000a81548163ffffffff021916908360e01c0217905550620018ce62001f82565b600381606001818152505080600560007f54554848000000000000000000000000000000000000000000000000000000007bffffffffffffffffffffffffffffffffffffffffffffffffffffffff191681526020019081526020016000206000820151816000015560208201518160010155604082015181600201556060820151816003015560808201518160040190805190602001906200197292919062001fb1565b509050506008806001815401808255809150506001900390600052602060002090600891828204019190066004027f5455484800000000000000000000000000000000000000000000000000000000909190916101000a81548163ffffffff021916908360e01c0217905550620019e862001f82565b600381606001818152505080600560007f5455484c000000000000000000000000000000000000000000000000000000007bffffffffffffffffffffffffffffffffffffffffffffffffffffffff1916815260200190815260200160002060008201518160000155602082015181600101556040820151816002015560608201518160030155608082015181600401908051906020019062001a8c92919062001fb1565b509050506008806001815401808255809150506001900390600052602060002090600891828204019190066004027f5455484c00000000000000000000000000000000000000000000000000000000909190916101000a81548163ffffffff021916908360e01c021790555062001b0262001f82565b600381606001818152505080600560007f54554c53000000000000000000000000000000000000000000000000000000007bffffffffffffffffffffffffffffffffffffffffffffffffffffffff1916815260200190815260200160002060008201518160000155602082015181600101556040820151816002015560608201518160030155608082015181600401908051906020019062001ba692919062001fb1565b509050506008806001815401808255809150506001900390600052602060002090600891828204019190066004027f54554c5300000000000000000000000000000000000000000000000000000000909190916101000a81548163ffffffff021916908360e01c021790555062001c1c62001f82565b600381606001818152505080600560007f5455534f000000000000000000000000000000000000000000000000000000007bffffffffffffffffffffffffffffffffffffffffffffffffffffffff1916815260200190815260200160002060008201518160000155602082015181600101556040820151816002015560608201518160030155608082015181600401908051906020019062001cc092919062001fb1565b509050506008806001815401808255809150506001900390600052602060002090600891828204019190066004027f5455534f00000000000000000000000000000000000000000000000000000000909190916101000a81548163ffffffff021916908360e01c021790555062001d3662001f82565b600381606001818152505080600560007f54555350000000000000000000000000000000000000000000000000000000007bffffffffffffffffffffffffffffffffffffffffffffffffffffffff1916815260200190815260200160002060008201518160000155602082015181600101556040820151816002015560608201518160030155608082015181600401908051906020019062001dda92919062001fb1565b509050506008806001815401808255809150506001900390600052602060002090600891828204019190066004027f5455535000000000000000000000000000000000000000000000000000000000909190916101000a81548163ffffffff021916908360e01c021790555062001e5062001f82565b600381606001818152505080600560007f54555453000000000000000000000000000000000000000000000000000000007bffffffffffffffffffffffffffffffffffffffffffffffffffffffff1916815260200190815260200160002060008201518160000155602082015181600101556040820151816002015560608201518160030155608082015181600401908051906020019062001ef492919062001fb1565b509050506008806001815401808255809150506001900390600052602060002090600891828204019190066004027f5455545300000000000000000000000000000000000000000000000000000000909190916101000a81548163ffffffff021916908360e01c02179055505050505050505050505050505050505050505050505050505050505062002022565b6040518060a0016040528060008152602001600081526020016000815260200160008152602001606081525090565b82805482825590600052602060002090810192821562001ff0579160200282015b8281111562001fef57825182559160200191906001019062001fd2565b5b50905062001fff919062002003565b5090565b5b808211156200201e57600081600090555060010162002004565b5090565b6108d080620020326000396000f3fe608060405234801561001057600080fd5b50600436106100885760003560e01c80639116c2881161005b5780639116c288146101205780639d95f1cc14610140578063be9a655514610184578063efbe1c1c146101a457610088565b8063183d1f621461008d57806359f78468146100ec57806362d73eb8146100f657806388ff499a14610100575b600080fd5b6100956101c4565b6040518080602001828103825283818151815260200191508051906020019060200280838360005b838110156100d85780820151818401526020810190506100bd565b505050509050019250505060405180910390f35b6100f4610313565b005b6100fe610499565b005b610108610600565b60405180821515815260200191505060405180910390f35b610128610617565b60405180821515815260200191505060405180910390f35b6101826004803603602081101561015657600080fd5b81019080803573ffffffffffffffffffffffffffffffffffffffff16906020019092919050505061062e565b005b61018c610874565b60405180821515815260200191505060405180910390f35b6101ac610887565b60405180821515815260200191505060405180910390f35b606060008054906101000a900473ffffffffffffffffffffffffffffffffffffffff1673ffffffffffffffffffffffffffffffffffffffff163373ffffffffffffffffffffffffffffffffffffffff1614610287576040517f08c379a000000000000000000000000000000000000000000000000000000000815260040180806020018281038252600d8152602001807f4143434553535f44454e4945440000000000000000000000000000000000000081525060200191505060405180910390fd5b600180548060200260200160405190810160405280929190818152602001828054801561030957602002820191906000526020600020905b8160009054906101000a900473ffffffffffffffffffffffffffffffffffffffff1673ffffffffffffffffffffffffffffffffffffffff16815260200190600101908083116102bf575b5050505050905090565b60008054906101000a900473ffffffffffffffffffffffffffffffffffffffff1673ffffffffffffffffffffffffffffffffffffffff163373ffffffffffffffffffffffffffffffffffffffff16146103d4576040517f08c379a000000000000000000000000000000000000000000000000000000000815260040180806020018281038252600d8152602001807f4143434553535f44454e4945440000000000000000000000000000000000000081525060200191505060405180910390fd5b60011515600660009054906101000a900460ff16151514801561040a575060001515600660019054906101000a900460ff161515145b61047c576040517f08c379a00000000000000000000000000000000000000000000000000000000081526004018080602001828103825260168152602001807f454c454354494f4e5f414c52454144595f454e4445440000000000000000000081525060200191505060405180910390fd5b6001600660016101000a81548160ff021916908315150217905550565b60008054906101000a900473ffffffffffffffffffffffffffffffffffffffff1673ffffffffffffffffffffffffffffffffffffffff163373ffffffffffffffffffffffffffffffffffffffff161461055a576040517f08c379a000000000000000000000000000000000000000000000000000000000815260040180806020018281038252600d8152602001807f4143434553535f44454e4945440000000000000000000000000000000000000081525060200191505060405180910390fd5b60001515600660009054906101000a900460ff161515146105e3576040517f08c379a00000000000000000000000000000000000000000000000000000000081526004018080602001828103825260188152602001807f454c454354494f4e5f414c52454144595f53544152544544000000000000000081525060200191505060405180910390fd5b6001600660006101000a81548160ff021916908315150217905550565b6000600660019054906101000a900460ff16905090565b6000600660009054906101000a900460ff16905090565b60008054906101000a900473ffffffffffffffffffffffffffffffffffffffff1673ffffffffffffffffffffffffffffffffffffffff163373ffffffffffffffffffffffffffffffffffffffff16146106ef576040517f08c379a000000000000000000000000000000000000000000000000000000000815260040180806020018281038252600d8152602001807f4143434553535f44454e4945440000000000000000000000000000000000000081525060200191505060405180910390fd5b60011515600260008373ffffffffffffffffffffffffffffffffffffffff1673ffffffffffffffffffffffffffffffffffffffff16815260200190815260200160002060009054906101000a900460ff16151514156107b6576040517f08c379a000000000000000000000000000000000000000000000000000000000815260040180806020018281038252600b8152602001807f4e4f44455f45584953545300000000000000000000000000000000000000000081525060200191505060405180910390fd5b6001819080600181540180825580915050600190039060005260206000200160009091909190916101000a81548173ffffffffffffffffffffffffffffffffffffffff021916908373ffffffffffffffffffffffffffffffffffffffff1602179055506001600260008373ffffffffffffffffffffffffffffffffffffffff1673ffffffffffffffffffffffffffffffffffffffff16815260200190815260200160002060006101000a81548160ff02191690831515021790555050565b600660009054906101000a900460ff1681565b600660019054906101000a900460ff168156fea2646970667358221220c69d90220a875d20c7592b6cf4ec6d3641d0d39638ac6c7bcf1b51fcb2615b5964736f6c63430007000033",
  "linkReferences": {},
  "deployedLinkReferences": {}
}