{
  "_format": "hh-sol-artifact-1",
  "contractName": "AddHostelPollsC",
  "sourceName": "contracts/addHostelPollsC.sol",
  "abi": [
    {
      "inputs": [],
      "stateMutability": "nonpayable",
      "type": "constructor"
    },
    {
      "inputs": [
        {
          "internalType": "address",
          "name": "_node",
          "type": "address"
        }
      ],
      "name": "addNode",
      "outputs": [],
      "stateMutability": "nonpayable",
      "type": "function"
    },
    {
      "inputs": [],
      "name": "end",
      "outputs": [
        {
          "internalType": "bool",
          "name": "",
          "type": "bool"
        }
      ],
      "stateMutability": "view",
      "type": "function"
    },
    {
      "inputs": [],
      "name": "endElection",
      "outputs": [],
      "stateMutability": "nonpayable",
      "type": "function"
    },
    {
      "inputs": [],
      "name": "start",
      "outputs": [
        {
          "internalType": "bool",
          "name": "",
          "type": "bool"
        }
      ],
      "stateMutability": "view",
      "type": "function"
    },
    {
      "inputs": [],
      "name": "startElection",
      "outputs": [],
      "stateMutability": "nonpayable",
      "type": "function"
    },
    {
      "inputs": [],
      "name": "viewElectionEnded",
      "outputs": [
        {
          "internalType": "bool",
          "name": "",
          "type": "bool"
        }
      ],
      "stateMutability": "view",
      "type": "function"
    },
    {
      "inputs": [],
      "name": "viewElectionStarted",
      "outputs": [
        {
          "internalType": "bool",
          "name": "",
          "type": "bool"
        }
      ],
      "stateMutability": "view",
      "type": "function"
    },
    {
      "inputs": [],
      "name": "viewNodes",
      "outputs": [
        {
          "internalType": "address[]",
          "name": "",
          "type": "address[]"
        }
      ],
      "stateMutability": "view",
      "type": "function"
    }
  ],
  "bytecode": "0x60806040526000600660006101000a81548160ff0219169083151502179055506000600660016101000a81548160ff0219169083151502179055503480156200004757600080fd5b50336000806101000a81548173ffffffffffffffffffffffffffffffffffffffff021916908373ffffffffffffffffffffffffffffffffffffffff160217905550620000926200273f565b600381606001818152505080600560007f4e4d4753000000000000000000000000000000000000000000000000000000007bffffffffffffffffffffffffffffffffffffffffffffffffffffffff19168152602001908152602001600020600082015181600001556020820151816001015560408201518160020155606082015181600301556080820151816004019080519060200190620001369291906200276e565b509050506008806001815401808255809150506001900390600052602060002090600891828204019190066004027f4e4d475300000000000000000000000000000000000000000000000000000000909190916101000a81548163ffffffff021916908360e01c0217905550620001ac6200273f565b600381606001818152505080600560007f4e4d4848000000000000000000000000000000000000000000000000000000007bffffffffffffffffffffffffffffffffffffffffffffffffffffffff19168152602001908152602001600020600082015181600001556020820151816001015560408201518160020155606082015181600301556080820151816004019080519060200190620002509291906200276e565b509050506008806001815401808255809150506001900390600052602060002090600891828204019190066004027f4e4d484800000000000000000000000000000000000000000000000000000000909190916101000a81548163ffffffff021916908360e01c0217905550620002c66200273f565b600381606001818152505080600560007f4e4d484c000000000000000000000000000000000000000000000000000000007bffffffffffffffffffffffffffffffffffffffffffffffffffffffff191681526020019081526020016000206000820151816000015560208201518160010155604082015181600201556060820151816003015560808201518160040190805190602001906200036a9291906200276e565b509050506008806001815401808255809150506001900390600052602060002090600891828204019190066004027f4e4d484c00000000000000000000000000000000000000000000000000000000909190916101000a81548163ffffffff021916908360e01c0217905550620003e06200273f565b600381606001818152505080600560007f4e4d4c53000000000000000000000000000000000000000000000000000000007bffffffffffffffffffffffffffffffffffffffffffffffffffffffff19168152602001908152602001600020600082015181600001556020820151816001015560408201518160020155606082015181600301556080820151816004019080519060200190620004849291906200276e565b509050506008806001815401808255809150506001900390600052602060002090600891828204019190066004027f4e4d4c5300000000000000000000000000000000000000000000000000000000909190916101000a81548163ffffffff021916908360e01c0217905550620004fa6200273f565b600381606001818152505080600560007f4e4d534f000000000000000000000000000000000000000000000000000000007bffffffffffffffffffffffffffffffffffffffffffffffffffffffff191681526020019081526020016000206000820151816000015560208201518160010155604082015181600201556060820151816003015560808201518160040190805190602001906200059e9291906200276e565b509050506008806001815401808255809150506001900390600052602060002090600891828204019190066004027f4e4d534f00000000000000000000000000000000000000000000000000000000909190916101000a81548163ffffffff021916908360e01c0217905550620006146200273f565b600381606001818152505080600560007f4e4d5350000000000000000000000000000000000000000000000000000000007bffffffffffffffffffffffffffffffffffffffffffffffffffffffff19168152602001908152602001600020600082015181600001556020820151816001015560408201518160020155606082015181600301556080820151816004019080519060200190620006b89291906200276e565b509050506008806001815401808255809150506001900390600052602060002090600891828204019190066004027f4e4d535000000000000000000000000000000000000000000000000000000000909190916101000a81548163ffffffff021916908360e01c02179055506200072e6200273f565b600381606001818152505080600560007f4e4d5453000000000000000000000000000000000000000000000000000000007bffffffffffffffffffffffffffffffffffffffffffffffffffffffff19168152602001908152602001600020600082015181600001556020820151816001015560408201518160020155606082015181600301556080820151816004019080519060200190620007d29291906200276e565b509050506008806001815401808255809150506001900390600052602060002090600891828204019190066004027f4e4d545300000000000000000000000000000000000000000000000000000000909190916101000a81548163ffffffff021916908360e01c0217905550620008486200273f565b600381606001818152505080600560007f504d4753000000000000000000000000000000000000000000000000000000007bffffffffffffffffffffffffffffffffffffffffffffffffffffffff19168152602001908152602001600020600082015181600001556020820151816001015560408201518160020155606082015181600301556080820151816004019080519060200190620008ec9291906200276e565b509050506008806001815401808255809150506001900390600052602060002090600891828204019190066004027f504d475300000000000000000000000000000000000000000000000000000000909190916101000a81548163ffffffff021916908360e01c0217905550620009626200273f565b600381606001818152505080600560007f504d4848000000000000000000000000000000000000000000000000000000007bffffffffffffffffffffffffffffffffffffffffffffffffffffffff1916815260200190815260200160002060008201518160000155602082015181600101556040820151816002015560608201518160030155608082015181600401908051906020019062000a069291906200276e565b509050506008806001815401808255809150506001900390600052602060002090600891828204019190066004027f504d484800000000000000000000000000000000000000000000000000000000909190916101000a81548163ffffffff021916908360e01c021790555062000a7c6200273f565b600381606001818152505080600560007f504d484c000000000000000000000000000000000000000000000000000000007bffffffffffffffffffffffffffffffffffffffffffffffffffffffff1916815260200190815260200160002060008201518160000155602082015181600101556040820151816002015560608201518160030155608082015181600401908051906020019062000b209291906200276e565b509050506008806001815401808255809150506001900390600052602060002090600891828204019190066004027f504d484c00000000000000000000000000000000000000000000000000000000909190916101000a81548163ffffffff021916908360e01c021790555062000b966200273f565b600381606001818152505080600560007f504d4c53000000000000000000000000000000000000000000000000000000007bffffffffffffffffffffffffffffffffffffffffffffffffffffffff1916815260200190815260200160002060008201518160000155602082015181600101556040820151816002015560608201518160030155608082015181600401908051906020019062000c3a9291906200276e565b509050506008806001815401808255809150506001900390600052602060002090600891828204019190066004027f504d4c5300000000000000000000000000000000000000000000000000000000909190916101000a81548163ffffffff021916908360e01c021790555062000cb06200273f565b600381606001818152505080600560007f504d534f000000000000000000000000000000000000000000000000000000007bffffffffffffffffffffffffffffffffffffffffffffffffffffffff1916815260200190815260200160002060008201518160000155602082015181600101556040820151816002015560608201518160030155608082015181600401908051906020019062000d549291906200276e565b509050506008806001815401808255809150506001900390600052602060002090600891828204019190066004027f504d534f00000000000000000000000000000000000000000000000000000000909190916101000a81548163ffffffff021916908360e01c021790555062000dca6200273f565b600381606001818152505080600560007f504d5350000000000000000000000000000000000000000000000000000000007bffffffffffffffffffffffffffffffffffffffffffffffffffffffff1916815260200190815260200160002060008201518160000155602082015181600101556040820151816002015560608201518160030155608082015181600401908051906020019062000e6e9291906200276e565b509050506008806001815401808255809150506001900390600052602060002090600891828204019190066004027f504d535000000000000000000000000000000000000000000000000000000000909190916101000a81548163ffffffff021916908360e01c021790555062000ee46200273f565b600381606001818152505080600560007f504d5453000000000000000000000000000000000000000000000000000000007bffffffffffffffffffffffffffffffffffffffffffffffffffffffff1916815260200190815260200160002060008201518160000155602082015181600101556040820151816002015560608201518160030155608082015181600401908051906020019062000f889291906200276e565b509050506008806001815401808255809150506001900390600052602060002090600891828204019190066004027f504d545300000000000000000000000000000000000000000000000000000000909190916101000a81548163ffffffff021916908360e01c021790555062000ffe6200273f565b600381606001818152505080600560007f534d4753000000000000000000000000000000000000000000000000000000007bffffffffffffffffffffffffffffffffffffffffffffffffffffffff19168152602001908152602001600020600082015181600001556020820151816001015560408201518160020155606082015181600301556080820151816004019080519060200190620010a29291906200276e565b509050506008806001815401808255809150506001900390600052602060002090600891828204019190066004027f534d475300000000000000000000000000000000000000000000000000000000909190916101000a81548163ffffffff021916908360e01c0217905550620011186200273f565b600381606001818152505080600560007f534d4848000000000000000000000000000000000000000000000000000000007bffffffffffffffffffffffffffffffffffffffffffffffffffffffff19168152602001908152602001600020600082015181600001556020820151816001015560408201518160020155606082015181600301556080820151816004019080519060200190620011bc9291906200276e565b509050506008806001815401808255809150506001900390600052602060002090600891828204019190066004027f534d484800000000000000000000000000000000000000000000000000000000909190916101000a81548163ffffffff021916908360e01c0217905550620012326200273f565b600381606001818152505080600560007f534d484c000000000000000000000000000000000000000000000000000000007bffffffffffffffffffffffffffffffffffffffffffffffffffffffff19168152602001908152602001600020600082015181600001556020820151816001015560408201518160020155606082015181600301556080820151816004019080519060200190620012d69291906200276e565b509050506008806001815401808255809150506001900390600052602060002090600891828204019190066004027f534d484c00000000000000000000000000000000000000000000000000000000909190916101000a81548163ffffffff021916908360e01c02179055506200134c6200273f565b600381606001818152505080600560007f534d4c53000000000000000000000000000000000000000000000000000000007bffffffffffffffffffffffffffffffffffffffffffffffffffffffff19168152602001908152602001600020600082015181600001556020820151816001015560408201518160020155606082015181600301556080820151816004019080519060200190620013f09291906200276e565b509050506008806001815401808255809150506001900390600052602060002090600891828204019190066004027f534d4c5300000000000000000000000000000000000000000000000000000000909190916101000a81548163ffffffff021916908360e01c0217905550620014666200273f565b600381606001818152505080600560007f534d534f000000000000000000000000000000000000000000000000000000007bffffffffffffffffffffffffffffffffffffffffffffffffffffffff191681526020019081526020016000206000820151816000015560208201518160010155604082015181600201556060820151816003015560808201518160040190805190602001906200150a9291906200276e565b509050506008806001815401808255809150506001900390600052602060002090600891828204019190066004027f534d534f00000000000000000000000000000000000000000000000000000000909190916101000a81548163ffffffff021916908360e01c0217905550620015806200273f565b600381606001818152505080600560007f534d5350000000000000000000000000000000000000000000000000000000007bffffffffffffffffffffffffffffffffffffffffffffffffffffffff19168152602001908152602001600020600082015181600001556020820151816001015560408201518160020155606082015181600301556080820151816004019080519060200190620016249291906200276e565b509050506008806001815401808255809150506001900390600052602060002090600891828204019190066004027f534d535000000000000000000000000000000000000000000000000000000000909190916101000a81548163ffffffff021916908360e01c02179055506200169a6200273f565b600381606001818152505080600560007f534d5453000000000000000000000000000000000000000000000000000000007bffffffffffffffffffffffffffffffffffffffffffffffffffffffff191681526020019081526020016000206000820151816000015560208201518160010155604082015181600201556060820151816003015560808201518160040190805190602001906200173e9291906200276e565b509050506008806001815401808255809150506001900390600052602060002090600891828204019190066004027f534d545300000000000000000000000000000000000000000000000000000000909190916101000a81548163ffffffff021916908360e01c0217905550620017b46200273f565b600381606001818152505080600560007f53534753000000000000000000000000000000000000000000000000000000007bffffffffffffffffffffffffffffffffffffffffffffffffffffffff19168152602001908152602001600020600082015181600001556020820151816001015560408201518160020155606082015181600301556080820151816004019080519060200190620018589291906200276e565b509050506008806001815401808255809150506001900390600052602060002090600891828204019190066004027f5353475300000000000000000000000000000000000000000000000000000000909190916101000a81548163ffffffff021916908360e01c0217905550620018ce6200273f565b600381606001818152505080600560007f53534848000000000000000000000000000000000000000000000000000000007bffffffffffffffffffffffffffffffffffffffffffffffffffffffff19168152602001908152602001600020600082015181600001556020820151816001015560408201518160020155606082015181600301556080820151816004019080519060200190620019729291906200276e565b509050506008806001815401808255809150506001900390600052602060002090600891828204019190066004027f5353484800000000000000000000000000000000000000000000000000000000909190916101000a81548163ffffffff021916908360e01c0217905550620019e86200273f565b600381606001818152505080600560007f5353484c000000000000000000000000000000000000000000000000000000007bffffffffffffffffffffffffffffffffffffffffffffffffffffffff1916815260200190815260200160002060008201518160000155602082015181600101556040820151816002015560608201518160030155608082015181600401908051906020019062001a8c9291906200276e565b509050506008806001815401808255809150506001900390600052602060002090600891828204019190066004027f5353484c00000000000000000000000000000000000000000000000000000000909190916101000a81548163ffffffff021916908360e01c021790555062001b026200273f565b600381606001818152505080600560007f53534c53000000000000000000000000000000000000000000000000000000007bffffffffffffffffffffffffffffffffffffffffffffffffffffffff1916815260200190815260200160002060008201518160000155602082015181600101556040820151816002015560608201518160030155608082015181600401908051906020019062001ba69291906200276e565b509050506008806001815401808255809150506001900390600052602060002090600891828204019190066004027f53534c5300000000000000000000000000000000000000000000000000000000909190916101000a81548163ffffffff021916908360e01c021790555062001c1c6200273f565b600381606001818152505080600560007f5353534f000000000000000000000000000000000000000000000000000000007bffffffffffffffffffffffffffffffffffffffffffffffffffffffff1916815260200190815260200160002060008201518160000155602082015181600101556040820151816002015560608201518160030155608082015181600401908051906020019062001cc09291906200276e565b509050506008806001815401808255809150506001900390600052602060002090600891828204019190066004027f5353534f00000000000000000000000000000000000000000000000000000000909190916101000a81548163ffffffff021916908360e01c021790555062001d366200273f565b600381606001818152505080600560007f53535350000000000000000000000000000000000000000000000000000000007bffffffffffffffffffffffffffffffffffffffffffffffffffffffff1916815260200190815260200160002060008201518160000155602082015181600101556040820151816002015560608201518160030155608082015181600401908051906020019062001dda9291906200276e565b509050506008806001815401808255809150506001900390600052602060002090600891828204019190066004027f5353535000000000000000000000000000000000000000000000000000000000909190916101000a81548163ffffffff021916908360e01c021790555062001e506200273f565b600381606001818152505080600560007f53535453000000000000000000000000000000000000000000000000000000007bffffffffffffffffffffffffffffffffffffffffffffffffffffffff1916815260200190815260200160002060008201518160000155602082015181600101556040820151816002015560608201518160030155608082015181600401908051906020019062001ef49291906200276e565b509050506008806001815401808255809150506001900390600052602060002090600891828204019190066004027f5353545300000000000000000000000000000000000000000000000000000000909190916101000a81548163ffffffff021916908360e01c021790555062001f6a6200273f565b600381606001818152505080600560007f53484753000000000000000000000000000000000000000000000000000000007bffffffffffffffffffffffffffffffffffffffffffffffffffffffff191681526020019081526020016000206000820151816000015560208201518160010155604082015181600201556060820151816003015560808201518160040190805190602001906200200e9291906200276e565b509050506008806001815401808255809150506001900390600052602060002090600891828204019190066004027f5348475300000000000000000000000000000000000000000000000000000000909190916101000a81548163ffffffff021916908360e01c0217905550620020846200273f565b600381606001818152505080600560007f53484848000000000000000000000000000000000000000000000000000000007bffffffffffffffffffffffffffffffffffffffffffffffffffffffff19168152602001908152602001600020600082015181600001556020820151816001015560408201518160020155606082015181600301556080820151816004019080519060200190620021289291906200276e565b509050506008806001815401808255809150506001900390600052602060002090600891828204019190066004027f5348484800000000000000000000000000000000000000000000000000000000909190916101000a81548163ffffffff021916908360e01c02179055506200219e6200273f565b600381606001818152505080600560007f5348484c000000000000000000000000000000000000000000000000000000007bffffffffffffffffffffffffffffffffffffffffffffffffffffffff19168152602001908152602001600020600082015181600001556020820151816001015560408201518160020155606082015181600301556080820151816004019080519060200190620022429291906200276e565b509050506008806001815401808255809150506001900390600052602060002090600891828204019190066004027f5348484c00000000000000000000000000000000000000000000000000000000909190916101000a81548163ffffffff021916908360e01c0217905550620022b86200273f565b600381606001818152505080600560007f53484c53000000000000000000000000000000000000000000000000000000007bffffffffffffffffffffffffffffffffffffffffffffffffffffffff191681526020019081526020016000206000820151816000015560208201518160010155604082015181600201556060820151816003015560808201518160040190805190602001906200235c9291906200276e565b509050506008806001815401808255809150506001900390600052602060002090600891828204019190066004027f53484c5300000000000000000000000000000000000000000000000000000000909190916101000a81548163ffffffff021916908360e01c0217905550620023d26200273f565b600381606001818152505080600560007f5348534f000000000000000000000000000000000000000000000000000000007bffffffffffffffffffffffffffffffffffffffffffffffffffffffff19168152602001908152602001600020600082015181600001556020820151816001015560408201518160020155606082015181600301556080820151816004019080519060200190620024769291906200276e565b509050506008806001815401808255809150506001900390600052602060002090600891828204019190066004027f5348534f00000000000000000000000000000000000000000000000000000000909190916101000a81548163ffffffff021916908360e01c0217905550620024ec6200273f565b600381606001818152505080600560007f53485350000000000000000000000000000000000000000000000000000000007bffffffffffffffffffffffffffffffffffffffffffffffffffffffff19168152602001908152602001600020600082015181600001556020820151816001015560408201518160020155606082015181600301556080820151816004019080519060200190620025909291906200276e565b509050506008806001815401808255809150506001900390600052602060002090600891828204019190066004027f5348535000000000000000000000000000000000000000000000000000000000909190916101000a81548163ffffffff021916908360e01c0217905550620026066200273f565b600381606001818152505080600560007f53485453000000000000000000000000000000000000000000000000000000007bffffffffffffffffffffffffffffffffffffffffffffffffffffffff19168152602001908152602001600020600082015181600001556020820151816001015560408201518160020155606082015181600301556080820151816004019080519060200190620026aa9291906200276e565b509050506008806001815401808255809150506001900390600052602060002090600891828204019190066004027f5348545300000000000000000000000000000000000000000000000000000000909190916101000a81548163ffffffff021916908360e01c02179055505050505050505050505050505050505050505050505050505050505050505050505050620027df565b6040518060a0016040528060008152602001600081526020016000815260200160008152602001606081525090565b828054828255906000526020600020908101928215620027ad579160200282015b82811115620027ac5782518255916020019190600101906200278f565b5b509050620027bc9190620027c0565b5090565b5b80821115620027db576000816000905550600101620027c1565b5090565b6108d080620027ef6000396000f3fe608060405234801561001057600080fd5b50600436106100885760003560e01c80639116c2881161005b5780639116c288146101205780639d95f1cc14610140578063be9a655514610184578063efbe1c1c146101a457610088565b8063183d1f621461008d57806359f78468146100ec57806362d73eb8146100f657806388ff499a14610100575b600080fd5b6100956101c4565b6040518080602001828103825283818151815260200191508051906020019060200280838360005b838110156100d85780820151818401526020810190506100bd565b505050509050019250505060405180910390f35b6100f4610313565b005b6100fe610499565b005b610108610600565b60405180821515815260200191505060405180910390f35b610128610617565b60405180821515815260200191505060405180910390f35b6101826004803603602081101561015657600080fd5b81019080803573ffffffffffffffffffffffffffffffffffffffff16906020019092919050505061062e565b005b61018c610874565b60405180821515815260200191505060405180910390f35b6101ac610887565b60405180821515815260200191505060405180910390f35b606060008054906101000a900473ffffffffffffffffffffffffffffffffffffffff1673ffffffffffffffffffffffffffffffffffffffff163373ffffffffffffffffffffffffffffffffffffffff1614610287576040517f08c379a000000000000000000000000000000000000000000000000000000000815260040180806020018281038252600d8152602001807f4143434553535f44454e4945440000000000000000000000000000000000000081525060200191505060405180910390fd5b600180548060200260200160405190810160405280929190818152602001828054801561030957602002820191906000526020600020905b8160009054906101000a900473ffffffffffffffffffffffffffffffffffffffff1673ffffffffffffffffffffffffffffffffffffffff16815260200190600101908083116102bf575b5050505050905090565b60008054906101000a900473ffffffffffffffffffffffffffffffffffffffff1673ffffffffffffffffffffffffffffffffffffffff163373ffffffffffffffffffffffffffffffffffffffff16146103d4576040517f08c379a000000000000000000000000000000000000000000000000000000000815260040180806020018281038252600d8152602001807f4143434553535f44454e4945440000000000000000000000000000000000000081525060200191505060405180910390fd5b60011515600660009054906101000a900460ff16151514801561040a575060001515600660019054906101000a900460ff161515145b61047c576040517f08c379a00000000000000000000000000000000000000000000000000000000081526004018080602001828103825260168152602001807f454c454354494f4e5f414c52454144595f454e4445440000000000000000000081525060200191505060405180910390fd5b6001600660016101000a81548160ff021916908315150217905550565b60008054906101000a900473ffffffffffffffffffffffffffffffffffffffff1673ffffffffffffffffffffffffffffffffffffffff163373ffffffffffffffffffffffffffffffffffffffff161461055a576040517f08c379a000000000000000000000000000000000000000000000000000000000815260040180806020018281038252600d8152602001807f4143434553535f44454e4945440000000000000000000000000000000000000081525060200191505060405180910390fd5b60001515600660009054906101000a900460ff161515146105e3576040517f08c379a00000000000000000000000000000000000000000000000000000000081526004018080602001828103825260188152602001807f454c454354494f4e5f414c52454144595f53544152544544000000000000000081525060200191505060405180910390fd5b6001600660006101000a81548160ff021916908315150217905550565b6000600660019054906101000a900460ff16905090565b6000600660009054906101000a900460ff16905090565b60008054906101000a900473ffffffffffffffffffffffffffffffffffffffff1673ffffffffffffffffffffffffffffffffffffffff163373ffffffffffffffffffffffffffffffffffffffff16146106ef576040517f08c379a000000000000000000000000000000000000000000000000000000000815260040180806020018281038252600d8152602001807f4143434553535f44454e4945440000000000000000000000000000000000000081525060200191505060405180910390fd5b60011515600260008373ffffffffffffffffffffffffffffffffffffffff1673ffffffffffffffffffffffffffffffffffffffff16815260200190815260200160002060009054906101000a900460ff16151514156107b6576040517f08c379a000000000000000000000000000000000000000000000000000000000815260040180806020018281038252600b8152602001807f4e4f44455f45584953545300000000000000000000000000000000000000000081525060200191505060405180910390fd5b6001819080600181540180825580915050600190039060005260206000200160009091909190916101000a81548173ffffffffffffffffffffffffffffffffffffffff021916908373ffffffffffffffffffffffffffffffffffffffff1602179055506001600260008373ffffffffffffffffffffffffffffffffffffffff1673ffffffffffffffffffffffffffffffffffffffff16815260200190815260200160002060006101000a81548160ff02191690831515021790555050565b600660009054906101000a900460ff1681565b600660019054906101000a900460ff168156fea2646970667358221220587c7bb1f5e700e66fc48d81c815f84fde8865319ed163962dcf1c788dccef8164736f6c63430007000033",
  "linkReferences": {},
  "deployedLinkReferences": {}
}